:020000040800F2
:10000000B83000243D040008399300082F8A000806
:10001000359300087B1C0008B9A000080000000010
:100020000000000000000000000000003F930008F6
:10003000111D0008000000003D93000841930008D6
:100040005704000857040008570400085704000824
:100050005704000857040008570400085704000814
:10006000570400085704000857040008811C0008C2
:10007000911C0008A11C0008B11C0008C11C00084C
:10008000D11C0008E11C0008570400083D1D0008B1
:100090004D1D0008570400085704000857040008C5
:1000A00057040008570400085704000857040008C4
:1000B0005704000857040008299400085704000852
:1000C00057040008570400085704000857040008A4
:1000D0005704000899A00008A9A0000857040008C8
:1000E000131D000857040008000000005704000812
:1000F000570400085704000857040008F11C0008C2
:1001000057040008570400083994000857040008F1
:1001100057040008D996000857040008570400083F
:10012000011D000857040008570400085704000880
:100130005704000857040008570400085704000833
:1001400000000000000000000000000000000000AF
:100150005704000857040008570400085704000813
:100160005704000857040008570400085704000803
:100170005704000857040008570400080000000056
:100180005704000857040008E9960008F99600088B
:1001900057040008570400085704000857040008D3
:1001A0005704000857040008570400080000000026
:1001B00057040008570400085704000857040008B3
:1001C0005704000857040008000000000000000069
:1001D00000000000000000005704000800000000BC
:1001E000000000000000000000000000000000000F
:1001F0000000000000000000570400085704000839
:1002000057040008570400080000000057040008C5
:100210005704000857040008570400085704000852
:100220005704000800000000570400080000000008
:100230005704000857040008000000005704000895
:100240005704000857040008570400085704000822
:100250005704000857040008570400085704000812
:100260005704000857040008570400085704000802
:100270005704000857040008570400080000000055
:1002800057040008570400085704000857040008E2
:100290000000000057040008570400080000000098
:1002A0000000000057040008570400085704000825
:1002B00089A00008570400085704000857040008E4
:1002C00057040008570400085704000800F002F81B
:1002D00000F0A4F80AA090E8000C82448344AAF13C
:1002E0000107DA4501D100F099F8AFF2090EBAE83A
:1002F0000F0013F0010F18BFFB1A43F0010318475A
:10030000FCED00001CEE00000A4410F8014B14F054
:100310000F0508BF10F8015B240908BF10F8014B56
:100320006D1E05D010F8013B6D1E01F8013BF9D19F
:10033000641E03D0641E01F8015BFBD19142E4D33B
:10034000704700000023002400250026103A28BF33
:1003500078C1FBD8520728BF30C148BF0B60704737
:100360006E2900F0AF82702900F0F98366290EF043
:10037000DE8465290EF0DB8467290EF0D8846129BC
:10038000AFF3008003681B0A28BF41F08001692990
:1003900000F05C82642900F05982752900F05682D1
:1003A0006F2900F08683782900F0C583E92900F0E1
:1003B0002183E42900F01E83F52900F01B83EF2937
:1003C00000F08383F82900F0C4830368DB0928BFA9
:1003D00041F08001632900F04C87732900F05187B8
:1003E000E32900F05C87F32900F061870020704763
:1003F0001FB50EF097FC00F0B1FF040000200021B3
:100400000EF026FC401C6060002000210EF00AFC6B
:10041000E06000F09BF91FBD10B510BD00F070FF4B
:100420001146FFF7E5FF0EF0D2FB01F04DF803B4E3
:10043000FFF7F2FF03BC01F051F8000009488047C4
:1004400009480047FEE7FEE7FEE7FEE7FEE7FEE7B6
:10045000FEE7FEE7FEE7FEE704480549054A064BCE
:100460007047000049930008CD020008B82A002414
:10047000B8300024B82C0024B82C002453EA020C15
:1004800000F069802DE9F04B4FF00006002B1FBFF4
:10049000B3FA83F503FA05F424FA05F65E4012BFB9
:1004A0001643B2FA82F502FA05F4C5F120051EBF23
:1004B00022FA05FC44EA0C04203556EA044C4FEAC3
:1004C000144418BF641C4FF000084FF0000990421C
:1004D00071EB030C39D3002919BFB1FA81F701FA86
:1004E00007F6B0FA80F700FA07F6C7F120071EBF3B
:1004F00020FA07FC46EA0C062037B6FBF4FCA7EB13
:100500000507103F07F01F0BCBF120060CFA0BFB81
:100510002CFA06F644BFB3460026202FA4BF5E4641
:100520004FF0000B5BEA060C08BF4FF0010B19EB14
:100530000B09ABFB027C48EB0608C01B06FB02CC98
:100540000BFB03CC71EB0C01C1E70B4602464146A5
:100550004846BDE8F08B13B54FF000004FF00001A6
:10056000AFF30080BDE81C40704700007CB51D461D
:1005700016460C00009001D02044401E074B7B44DF
:100580002A4669460190304600F0B5F905461CB18F
:100590000020694600F0C2F928467CBDA503000092
:1005A000032A40F2308010F0030C00F0158011F89F
:1005B000013BBCF1020F624498BF11F801CB00F877
:1005C000013B38BF11F8013BA2F1040298BF00F8CB
:1005D00001CB38BF00F8013B11F0030300F0258088
:1005E000083AC0F0088051F8043B083A51F804CBAF
:1005F000A0E80810F5E7121D5CBF51F8043B40F875
:10060000043BAFF30080D20724BF11F8013B11F87F
:1006100001CB48BF11F8012B24BF00F8013B00F8C3
:1006200001CB48BF00F8012B704710B5203AC0F04D
:100630000B80B1E81850203AA0E81850B1E81850E3
:10064000A0E81850BFF4F5AF5FEA027C24BFB1E820
:100650001850A0E8185044BF18C918C0BDE8104091
:100660005FEA827C24BF51F8043B40F8043B08BF9A
:100670007047D20728BF31F8023B48BF11F8012B61
:1006800028BF20F8023B48BF00F8012B70474FF00D
:10069000000200B5134694469646203922BFA0E8D2
:1006A0000C50A0E80C50B1F12001BFF4F7AF0907DE
:1006B00028BFA0E80C5048BF0CC05DF804EB8900CF
:1006C00028BF40F8042B08BF704748BF20F8022B12
:1006D00011F0804F18BF00F8012B70474FF0013C1C
:1006E00050F8042B51F8043B9A4215D1A2EB0C03AD
:1006F000934313EACC130BD150F8042B51F8043B6D
:100700009A4209D1A2EB0C03934313EACC13E7D02E
:100710004FF00000704700BFD01A01BAB1FA81F162
:1007200001F0180122FA01F0CB40C1F12001DBB247
:10073000C0B2C01A2CFA01F3D11A914311EAC311C5
:10074000E6D17047704770477047000070B5064C9F
:100750007C44064D7D4403E0206820448047241DEE
:10076000AC42F9D170BD0000F4EA0000FCEA0000E0
:1007700010B500F0C3FA006810BD10B5044600F0D3
:10078000BDFA046010BD70B5044685690068C106F5
:1007900001D5302600E02026C00707D070BDD4E97F
:1007A000012130469047206A401C20626D1EF6D51C
:1007B00070BD70B5044685690078C00707D170BD6B
:1007C000D4E9012120209047206A401C20626D1E40
:1007D000F6D570BD09684A0501D540B27047C90514
:1007E000FCD500B2704709684A0501D5C0B2704710
:1007F000C905FCD580B2704770B50C460546012A84
:1008000005D02878800600D5EA69002302E001239C
:1008100005E05B1C934202D2E05C0028F9D1A86994
:10082000E618C01AA861286A184428622846FFF70B
:10083000AAFF04E0D5E9012114F8010B9047B44266
:10084000F8D32846FFF7B5FF70BD00002DE9F04151
:100850000646002410687529314616A510D0FFF70A
:10086000B9FF002802DA404213A507E031688A0781
:1008700001D512A502E0490704D511A5012401E024
:10088000FFF7B1FF00210A2206F1240709E0B0FBBF
:10089000F2FCB0FBF2F302FB1C0030307854184637
:1008A000491C0028F3D123462A463046BDE8F041D2
:1008B00000F06DBA000000002D0000002B000000C9
:1008C0002000000011680268006A530501D5087015
:1008D0000AE0D30501D5088006E0130603D5C21748
:1008E000C1E9000200E008600120704701694A1C6C
:1008F00002610878704700B58FB0CDE90131002161
:10090000059105497944CDE903101146684600F088
:1009100031F90FB000BD0000E5FFFFFF0A6802F8E3
:10092000010B0A607047D1E900239A4202D2531C9E
:100930000B601070704700002DE9FF5F15468A4676
:100940000446DFF8AC80F8440027D8E900103E46A2
:10095000CDE9001010E03AF816106A4602A800F03F
:10096000AAFC411C07D02178890603D5E269391811
:1009700091420DD80744761C2078800602D5E069A4
:10098000B84205DDAE42E6DB3AF816000028E2D1B7
:10099000A069C01BA0612046FFF7F5FED8E9001052
:1009A000CDE90010002017E03AF818106A4602A8B6
:1009B00000F081FCB0F1FF3F81460BD000250DF126
:1009C000080B05E0D4E901211BF8050090476D1CD8
:1009D0004D45F7D308F10100B0428046E4DB206AC0
:1009E000384420622046FFF7E4FEBDE8FF9F000088
:1009F00086E600002DE9F0418046D21D22F0070274
:100A00000025D2E90002F52915A614D0011E72F1C5
:100A1000000106DA0023D0EB030063EB020211A60B
:100A200008E0D8F800108B0701D50FA602E04907AF
:100A300001D50EA601251146002408F1240704E083
:100A400000F060F930323A55641C50EA0102F7D1E7
:100A50002B46324621464046BDE8F04100F097B9AA
:100A6000000000002D0000002B000000200000000E
:100A700030B4002100F1240408E002F00705D20898
:100A8000303542EA4372DB086554491C52EA0305DB
:100A9000F3D10468002310A2250707D5A40600D4CB
:100AA00021B1C46901230DA2641EC46130BC00F0F1
:100AB0006EB910B5044621461068FFF794FE024651
:100AC0002046BDE810400023D2E7D21D22F00701E6
:100AD000D1E90023CCE70000000000003000000056
:100AE000F0B40D460188090502D5214C7C4402E092
:100AF0001F4C7C440E34002100F1240608E002F073
:100B00000F071209E75D42EA03721B097754491C7B
:100B100052EA0307F3D102780023120704D5702D9F
:100B200006D009B1022311342246F0BC00F02FB9DF
:100B300001231034F8E770B504460D4621461068CD
:100B4000FFF751FE024629462046BDE870400023CB
:100B5000C6E7D21D22F00703D3E90023C0E70368EC
:100B6000126843F0200303600823C3610023B7E742
:100B7000E8E400002DE9F05F894604464FF0000AE2
:100B8000DFF874B1FB44C0F820A02046E168884734
:100B9000002874D0252806D0D4E901219047206A86
:100BA000401C2062F1E700265F462046E168884746
:100BB0002028054607DB312D05D2781910F8200CC6
:100BC00008B10643F1E7B00701D526F00406C4F8E2
:100BD0001CA00027C4F818A02A2D09D028460DF023
:100BE000EFFF38B304EB8708303DC8F8185019E020
:100BF00059F8041B204604EB87029161E16888479D
:100C0000012F054618D1E069002820DA26F02006D9
:100C10001DE0D8F8180000EB800005EB40003038EC
:100C2000C8F818002046E168884705460DF0C8FF5F
:100C30000028EED1012F0AD02E2D08D12046E168E0
:100C400088477F1C0546022F46F02006C4DBA069BA
:100C5000002803DA404246F00106A061F00701D007
:100C600026F010066C2D0BD0682D09D04C2D39D0F4
:100C70006A2D35D0742D35D07A2D33D016E038E07A
:100C8000E1682F4620468847B842054609D16C2FB7
:100C900026D04FF48060E168064320468847054629
:100CA00004E06C2F1AD04FF4807006430DB3A5F109
:100CB0004100192802D8203546F400664A462946E4
:100CC000204626604E46FFF74BFB80B101280BD033
:100CD000F61D26F0070000F1080956E74020E4E77A
:100CE0008020D8E70020D6E706F104094DE7284622
:100CF00052E7206ABDE8F09F78E4000000487047A2
:100D0000582A002430B5B0F10A024FEA900E71F172
:100D100000034EEA817EB0EB0E0061EB91014FEAD9
:100D2000101E4EEA017E10EB0E0041EB11114FEA4E
:100D3000102E4EEA016E10EB0E0041EB11214FEA2E
:100D4000104E4EEA014E10EB0E0041EB11414018DF
:100D500041F100014FEAD00040EA41704FEAD10171
:100D600010EB80054FEA810444EA907444EB0104DF
:100D70006D1944EB0404521BA3414FF0000348BF1C
:100D80000A3200D530BD401C41F1000130BD2DE9D3
:100D9000F0470D4699469246044600F12408016842
:100DA000880604D5E06921F01001216000E00120EF
:100DB000A84201DD471B00E00027A1697A1902EB78
:100DC0000900081AA0612078C00602D42046FFF767
:100DD000DAFC002608E0D4E901211AF80600904761
:100DE000206A401C761C20624E45F4DB2078C00649
:100DF0000AD52046FFF7C7FC06E0D4E901213020E0
:100E00009047206A401C2062381EA7F10107F4DCDD
:100E100007E0D4E9012118F805009047206A401C3A
:100E20002062281EA5F10105F3DC2046FFF7C1FC76
:100E30002078000602D50220BDE8F0870120FBE7FC
:100E400070472DE9FF4F0C461E464FF0FF378BB021
:100E5000D2E90001DDF860800A908A46C1F30A55A4
:100E600005B93D46002108464FF00000BAF1000FD9
:100E700000F4400005DA00EB80004FF4400101EA85
:100E800050004FEA9059B9F1010F00DDB9460A98B8
:100E900050EA4A000ED044F61050A5F2FF35454303
:100EA0002F14B8F1000F1ED07542291E1EDDC9F1A6
:100EB00000021CE0B8F1010F4FF0000001D030211A
:100EC00003E0F24305E02154401CB042FBDB304616
:100ED0000022002121540B99C1F80880C1E90020AB
:100EE0000FB0BDE8F08FBD1B6D1CDEE74A4600DA8F
:100EF000694206A800F076FA06AB93E8070003AB58
:100F000083E8070050460A9900F0EFFA8DE80700E1
:100F1000A0F500501F3800900398002D0ADD42F222
:100F20001F014A460844002303A90390684600F0C5
:100F300058FD09E0A0F500504A461F38002303A9D8
:100F40000390684600F062FD8DE807000004000C85
:100F500003D04FF0FF30410800E01046B8F1000F19
:100F600003D00022009215461EE0751E05D4FFF73F
:100F7000C9FE303262556D1EF9D5B34601220843D1
:100F800002D000227F1C04E02078302801D100220A
:100F90007F1E002A099784D01DE0112D07DAFFF784
:100FA000B1FE303262556D1C50EA0102F5D10843A2
:100FB00002D00098C8B10EE00021681E05E0235C55
:100FC000625C63542254401E491C8142F7DBAB46ED
:100FD000A81B401E0990002004F80B000B98099AEA
:100FE000C0F80880C0E9002B7AE711264FF000080E
:100FF00057E72DE9F04F88460446D21D22F007013D
:1010000091B0D1E90001CDE90A010DF084FC02465E
:101010000B98C00F01D02D2007E02068810701D573
:101020002B2002E0202101EAC000032A099001D010
:10103000072A05DB03464146204600F093F90BE101
:101040002078800601D5E06900E00620B8F1650F40
:10105000814606D0B8F1660F18D0B8F1670F70D18D
:1010600031E00020B9F1110F009001DB112301E004
:1010700009F101030AAA01A90CA8FFF7E2FEDDE9C4
:101080000C70002609F10105834647E001204B461C
:1010900000904FF000470AAA01A90CA8FFF7D1FE63
:1010A000DDE90DB00C995D46002610B909F101008B
:1010B0000D18B9EB050003D4C0F1FF3609F10105A5
:1010C000A5EB09002BE0B9F1010F01DA4FF001099E
:1010D0000020B9F1110F0090484601DD112300E016
:1010E00003460AAA01A90CA8FFF7ABFEDDE90C70C4
:1010F0004D4600268346207800070AD4AB4500DA27
:101100005D4601A8012D04DD411911F8011C3029AB
:1011100007D04F4502DA17F1040F04DA01208246A6
:101120000FE06D1EEEE7002F02DCED1B3E4403E0F6
:10113000781CA84200DD7D1CB81B00F1010A4FF0AD
:1011400000472078000703D4AA4501DB4FF0FF3A9F
:101150000021B7F1004F0DF143088DF8431024D062
:1011600002202B23002F01DA7F422D230A21021EA9
:10117000A0F1010000DC5FB197FBF1FC97FBF1F2FD
:1011800001FB1C7C17460CF1300C08F801CDEEE792
:10119000A8F1010003702188090501D5452100E06F
:1011A0006521A0F1010800F8011C09980FA9A1EB25
:1011B0000807FF1D00B10120411901EBEA70A16988
:1011C0003844081A401EA0612078C00602D4204688
:1011D000FFF7D9FA099828B1D4E901219047206A8C
:1011E000401C20622078C00622D52046FFF7CBFAAB
:1011F0001EE0002E04DBB34502DD01A8805D00E0A7
:101200003020D4E901219047206A401C2062761CDE
:10121000AAF101005FEA000A0AD100F09FF8C06855
:101220000168405CD4E901219047206A401C20629B
:10123000281EA5F10105DCDC07E0D4E9012118F83E
:10124000010B9047206A401C2062381EA7F101075D
:10125000F3DC2046FFF7ADFA032011B041E610B5EC
:10126000436913B1AFF3008001E0FFF7C5FA012035
:1012700010BD127800F124010A7000224A70012288
:10128000EDE711684FF0FF32E9E710B5436913B19C
:10129000AFF3008001E0FFF74FFB012010BD128883
:1012A00000F1240182840022C2840122EDE711684A
:1012B0004FF0FF32E9E770B516460C46054600F0E0
:1012C00045F8036893F80101012806D0FF2C0FD8D8
:1012D000185D68B101202C7070BDD3F8070132464B
:1012E000214603F2071303442846BDE8704018471F
:1012F0004FF0FF3070BD000000487047582A0024AE
:101300007546FFF7F9FFAE4605006946534620F0E3
:101310000700854618B020B5FFF79EF8BDE82040CD
:101320004FF000064FF000074FF000084FF0000BA1
:1013300021F00701AC46ACE8C009ACE8C009ACE854
:10134000C009ACE8C0098D467047000010B500F038
:1013500005F8001D10BD00BFF9D800000048704717
:10136000782A00242DE9F0411F460446032601682F
:10137000072A01F4006004DB08B116A505E016A5F4
:1013800003E008B115A500E015A521F010002060CC
:10139000A069C01EA0610FB1401EA0612046FFF7EA
:1013A000F2F94FB1D4E9012138469047206A401C38
:1013B0002062C01C206206E0206AFAE7D4E901211D
:1013C00015F8010B9047761EF8D22046FFF7F1F989
:1013D000BDE8F0814E414E006E616E00494E460000
:1013E000696E66002DE9F047814616468AB0354899
:1013F00078440DC88DE80D0032487844801C03AC59
:101400000DC884E80D0041F69B300844372190FB5D
:10141000F1F290FBF1F5A5F1800501FB12041B3CF4
:1014200002D56442012000E00020DFF898A0804649
:101430000027FA44AAF1BE0A0EE0E0070AD03246BD
:10144000684607EB470101230AEB810100F0DEFA51
:101450008DE8070064107F1C002CEED1194F7F44EB
:10146000AE3F19E0E80715D007EB04100DF1180A9C
:1014700090E80E008AE80E00C068F04201D1981989
:1014800008903246012306A903A800F0BFFA03AB77
:1014900083E807006D10641C002DE3D14FF00103B9
:1014A00032466946B8F1000F03A802D000F099FA5D
:1014B00001E000F0ABFAC9E90001C9F808200AB060
:1014C000BDE8F0879CDC000010B50446AFF3008057
:1014D0002046BDE81040FEF7AABF000001491820D1
:1014E000ABBEFEE72600020070475FEA400C08BF73
:1014F00091F0000F4FEA8C234FEAC12243EA515189
:101500004FEA1C5018BF00F5F0404FEA300018BFFA
:1015100041F000415FEA6C5C00F02980BCF1FF3FC4
:1015200008BF40F080407047130C06BF12044FF014
:10153000100C4FF0000C130E04BF12020CF1080C3B
:10154000130F04BF12010CF1040C930F04BF92009F
:101550000CF1020CD30F04BF52000CF1010C114628
:101560004FF00002A0F11F00A0EB0C00704711F03B
:10157000004F08BF704731F000413FF4D5AF0B0C6E
:1015800006BF09044FF0100C4FF0000C0B0E04BF07
:1015900009020CF1080C0B0F04BF09010CF1040C3B
:1015A0008B0F04BF89000CF1020CCB0F04BF490064
:1015B0000CF1010CCCF12003A0EB0C0022FA03F398
:1015C00002FA0CF241EA030100F10100704720F039
:1015D0007F4C80EA030023F07F47ACEB070303F561
:1015E0007C5300F0004003F1FF032DE980494FEAEE
:1015F000154B09B44FEA144325EA0B4E24EA03487D
:101600000FF2042606EB132749083E785FEA320200
:1016100003FB0667C7F5000707FB06F64FEA5437DA
:101620004FEAD64606F1020607FB066CCCF1005CD9
:101630004FEA1C472CEA074C07FB06F40CFB06F5A7
:1016400004EB15464FEA961634BF00204FF00040D9
:101650004FEAD13706FB07FC4FEA1C4C0CFB0BF79B
:10166000D21B03FB0CF761EB07010CFB0EF7B0EB91
:10167000074072EB17420CFB08F734BFA2EB07429E
:10168000B2EB074261EB17414FEA0C444FEA910776
:1016900006FB07FC4FEA1C4C0CFB0BF7B0EBC740FA
:1016A00072EB573203FB0CF734BFA2EBC742B2EB2D
:1016B000C74261EB57310CFB0EF7B0EBC70072EB82
:1016C00057720CFB08F734BFA2EBC702B2EBC7029C
:1016D00061EB5771039F4FEA816141EA921104EB7C
:1016E000CC044FEAD1374FEA826206FB07FC42EA9C
:1016F00090124FEA80604FEA1C4C0CFB0BF7D21B98
:1017000003FB0CF761EB07010CFB0EF7B0EB074096
:1017100072EB17420CFB08F734BFA2EB0742B2EBA7
:10172000074261EB17414FEA8C554FEA910704EBF2
:101730009C2406FB07FC4FEA1C4C0CFB0BF7B0EBA0
:10174000C74072EB573203FB0CF734BFA2EBC74222
:10175000B2EBC74261EB57310CFB0EF7B0EBC700A1
:1017600072EB57720CFB08F734BFA2EBC702B2EB67
:10177000C70261EB577115EB4C254FEA816141EAD5
:1017800092114FEA82624FEAD13742EA901206FB89
:1017900007FC44F100044FEA80604FEA1C4C0CFB4C
:1017A0000BF7D21B03FB0CF761EB07010CFB0EF7E9
:1017B000B0EB074072EB17420CFB08F734BFA2EB0B
:1017C0000742B2EB074261EB174115EB1C154FEADC
:1017D000813141EA92414FEA823242EA90424FEA35
:1017E00080304FEA0C7644F1000448EA03434EEAA5
:1017F0000B484FF0000EB2EB080C71EB030724BF4F
:10180000624639464EEB0E0E4FF0000B0018524167
:1018100049414BEB0B0BB2EB080C71EB03077BF16F
:10182000000B24BF624639464EEB0E0E4FF0000B04
:101830000018524149414BEB0B0BB2EB080C71EB1A
:1018400003077BF1000B24BF624639464EEB0E0EB8
:1018500051EA020718BF46F0010616EB0E7655F165
:10186000000254F1000103D5BDE88901BDE80088FC
:10187000BDE88901BDE80048B619524141EB0101BC
:10188000A3F10103704780807F7E7D7C7B7A79782D
:10189000777676757473727171706F6E6E6D6C6C35
:1018A0006B6A6A69686867666665646463636261D7
:1018B0006160605F5F5E5E5D5D5C5C5B5B5A5A5958
:1018C00059585857575656555555545453535252C4
:1018D0005251515050504F4F4F4E4E4D4D4D4C4C1C
:1018E0004C4B4B4B4A4A4A49494948484847474765
:1018F00047464646454545444444444343434342A2
:10190000424242414141002B9C4630D477002BD0CB
:101910001CB54FEA370703B44FF010004FF0100129
:10192000BAF1000F06D0BCF1000FDCBF40F0080098
:1019300040F008014FF000000FBCBDE810400BF173
:10194000010BBBF1010F08BF5FEA170722BF12F1BD
:10195000010211F101014FF0004143F1000300F0D9
:10196000004043EA00007047F9D35708D0E746EA41
:10197000064613F1400F4FEA16461FDD13F1200F04
:10198000DFBF16430A46002120335B42BED0C3F1BD
:10199000200746EA064602FA07F74FEA164646EAE5
:1019A0000706C3F1200722FA03F201FA07F721FA2A
:1019B00003F14FF0000342EA0702A7E746EA0206F6
:1019C00046EA06464FEA164646EA0106BCBF46EA24
:1019D0000646360C4FF000034FF000024FF00001B6
:1019E00094E72DE9804C9A46934670B491E838000C
:1019F00007C831EA400C48BF34EA430C03D5FFF76F
:101A0000E6FDFFF780FFF0BCBDE8008C2DE9804CBF
:101A10009A46934670B491E8380007C810F0804F9A
:101A200008BF13F0804F03D100F005F8FFF76BFFFC
:101A3000F0BCBDE8008C20F07F4780EA030023F073
:101A40007F4C07EB0C03A3F57C5300F00040A3F19F
:101A5000FE0392F0000F00F0B38095F0000F00F04D
:101A600077802DE901494FEA11404FEA144621EAF7
:101A7000004800FB06FC24EA064708FB06F607FBC5
:101A800008F800FB07F718EB06484CEB164C4FEA3A
:101A9000124B18EB07484FEA15464CEB174022EA69
:101AA0000B4E0BFB06FC25EA06470EFB06F607FB72
:101AB0000EFE0BFB07F71EEB064E4CEB164C4FF0E1
:101AC00000061EEB074E4CEB174B18EB0B0840F1D2
:101AD000000018EB0E0B58EB000840F100008F1AC5
:101AE0004FF000013CBFC943661B14BFB5EB040CAB
:101AF00000213CBFC943F61B4FEA17444EEA8E0E45
:101B000027EA04454FEA1C4704FB07622CEA074C0E
:101B100005FB07F70CFB05F604FB0CFC16EB074670
:101B200042EB174216EB0C4642EB1C421BEB06063F
:101B300058EB0202414146EA9E0601D5BDE8018903
:101B4000B619524141EB0101A3F10103BDE801893E
:101B50004FEA14454FEA114724EA054621EA074CAB
:101B600005FB07F406FB07F70CFB06F105FB0CFC75
:101B700011EB074144EB17444FEA124711EB0C41BC
:101B800044EB1C4422EA074C05FB07F206FB07F76F
:101B90000CFB06F605FB0CFC16EB074642EB174266
:101BA00016EB0C4642EB1C456A1854F1000148BF85
:101BB0007047B619524141EB0101A3F1010370478F
:101BC00095F0000F37D04FEA11424FEA144721EA4F
:101BD000024624EA074C02FB07F106FB07F70CFB61
:101BE00006F402FB0CFC14EB074441EB17414FEAEF
:101BF000154714EB0C4441EB1C4125EA074C02FB52
:101C000007F506FB07F70CFB06F602FB0CFC16EBD0
:101C1000074645EB174516EB0C4645EB1C421219DF
:101C200051F1000148BF7047B619524141EB010123
:101C3000A3F1010370474FEA14454FEA114724EA24
:101C4000054621EA074C05FB07F106FB07F70CFBED
:101C500006F24FF0000605FB0CFC12EB074241EBCD
:101C6000174112EB0C4251EB1C4148BF70479218D0
:101C700041EB0101A3F10103704700BFFEE7000043
:101C800010B5024800F0A4FC10BD0000700900244B
:101C900010B5024800F09CFC10BD0000500B002461
:101CA00010B5024800F094FC10BD0000C80B0024E1
:101CB00010B5024800F08CFC10BD0000400C002460
:101CC00010B5024800F084FC10BD0000B80C0024E0
:101CD00010B5024800F07CFC10BD0000E8090024AB
:101CE00010B5024800F074FC10BD0000600A00242A
:101CF00010B5024800F06CFC10BD0000D80A0024AA
:101D000010B5024800F064FC10BD0000F808002483
:101D1000704710B54FF4806002F020FE4FF4006071
:101D200002F01CFE4FF4805002F018FE4FF4804089
:101D300002F014FE10BD72B600BFFEE710B50248F7
:101D400002F068F810BD0000DC01002410B5024864
:101D500002F060F810BD00007C0200242DE9F04183
:101D6000044602F015FF804614B90120BDE8F08159
:101D700094F83500022808D08020606500BF00205C
:101D800084F8340000BF0120F0E7FE492068884253
:101D900049D0FC4918312068884244D0F949303193
:101DA000206888423FD0F7494831206888423AD0BD
:101DB000F44960312068884235D0F2497831206892
:101DC000884230D0EF499031206888422BD0ED49CD
:101DD000A8312068884226D0EB492068884222D06A
:101DE000E9491831206888421DD0E7493031206820
:101DF000884218D0E44948312068884213D0E2492B
:101E00006031206888420ED0DF49783120688842EE
:101E100009D0DD4990312068884204D0DA49A831E0
:101E20002068884206D12068006820F001002168FF
:101E3000086005E02068006820F001002168086063
:101E4000D0492068884249D0CE491831206888425C
:101E500044D0CC493031206888423FD0C94948310C
:101E6000206888423AD0C74960312068884235D01E
:101E7000C44978312068884230D0C2499031206806
:101E800088422BD0BF49A8312068884226D0BE495D
:101E90002068884222D0BC491831206888421DD071
:101EA000B94930312068884218D0B7494831206894
:101EB000884213D0B4496031206888420ED0B249BC
:101EC00078312068884209D0AF4990312068884233
:101ED00004D0AD49A8312068884201D1012000E03A
:101EE000002068B12068006820F01E0021680860AA
:101EF0002068406920F0800021684861256806E07C
:101F00002068006820F00E002168086025689D495F
:101F10002068884270D09B491831206888426BD075
:101F2000984930312068884266D096494831206807
:101F3000884261D093496031206888425CD09149E1
:101F400078312068884257D08E4990312068884285
:101F500052D08C49A831206888424DD08A492068E7
:101F6000884249D0884918312068884244D086493F
:101F70003031206888423FD0834948312068884208
:101F80003AD0814960312068884235D07E49783125
:101F90002068884230D07C499031206888422BD01C
:101FA0007949A8312068884226D07849206888423B
:101FB00022D076491431206888421DD073492831D7
:101FC0002068884218D071493C312068884213D07B
:101FD0006E495031206888420ED06C4964312068C7
:101FE000884209D0694978312068884204D067491D
:101FF0008C312068884201D1012000E0002028B106
:10200000206E006820F48070216E086011E002F0FC
:10201000BFFDA0EB080005280BD920206065032038
:1020200084F8350000BF002084F8340000BF012090
:102030009CE6286800F001000028E8D1514920689A
:10204000884249D04F4918312068884244D04D49D0
:102050003031206888423FD04A4948312068884260
:102060003AD0484960312068884235D045497831B6
:102070002068884230D043499031206888422BD074
:102080004049A8312068884226D03F4920688842CC
:1020900022D03D491831206888421DD03A4930315C
:1020A0002068884218D0384948312068884213D0C7
:1020B00035496031206888420ED033497831206834
:1020C000884209D0304990312068884204D02E4996
:1020D000A8312068884201D1012000E0002040B1F1
:1020E000A66D94F85C0000F01F013F208840B060AE
:1020F00007E0A76D94F85C0000F01F010120884004
:10210000786020492068884276D01E4918312068BE
:10211000884271D01B493031206888426CD01949FF
:1021200048312068884267D016496031206888426B
:1021300062D014497831206888425DD011499031CD
:102140002068884258D00F49A8312068884253D06F
:102150000D49206888424FD00B49183120688842C9
:102160004AD0094930312068884245D00649483173
:102170002068884240D004496031206888423BD0C2
:10218000014905E0100002401004024008540258C2
:102190007831206888422FD02549206888422BD08A
:1021A000234918312068884226D022492068884275
:1021B00022D020491431206888421DD01D49283181
:1021C0002068884218D01B493C312068884213D0CF
:1021D00018495031206888420ED016496431206871
:1021E000884209D0134978312068884204D01149C7
:1021F0008C312068884201D1012000E0002068B1C4
:10220000D4E919104860E06E40B1E06E006820F437
:102210008070E16E0860D4E91C104860012084F8E9
:10222000350000BF002084F8340000BF00BF9DE5EA
:10223000A00402400854025870B504460CB90120AD
:1022400070BD94F83500022803D08020606501201D
:10225000F6E7DC492068884249D0DA49183120681D
:10226000884244D0D7493031206888423FD0D54990
:102270004831206888423AD0D2496031206888428B
:1022800035D0D04978312068884230D0CD4990315E
:10229000206888422BD0CB49A8312068884226D0BC
:1022A000C9492068884222D0C7491831206888422D
:1022B0001DD0C54930312068884218D0C249483104
:1022C0002068884213D0C0496031206888420ED00F
:1022D000BD4978312068884209D0BB4990312068D7
:1022E000884204D0B849A8312068884201D1012031
:1022F00000E00020F0B3042084F83500B1492068E4
:1023000088424BD0AF4918312068884246D0AD4949
:1023100030312068884241D0AA494831206888423B
:102320003CD0A84960312068884237D0A54978312F
:102330002068884232D0A3499031206888422DD04D
:10234000A049A8312068884228D09F492068884247
:1023500024D09D491831206888421FD09A493031D5
:10236000206888421AD0984948312068884215D0A0
:10237000954900E020E06031206888420ED0924903
:1023800078312068884209D08F499031206888428E
:1023900004D08D49A8312068884206D120680068A1
:1023A00020F001002168086009E12068006820F041
:1023B00001002168086002E182492068884249D012
:1023C000804918312068884244D07E4930312068E5
:1023D00088423FD07B494831206888423AD07949C9
:1023E00060312068884235D076497831206888424B
:1023F00030D074499031206888422BD07149A8317F
:102400002068884226D070492068884222D06E49D0
:102410001831206888421DD06B49303120688842CD
:1024200018D0694948312068884213D06649603124
:10243000206888420ED0644978312068884209D0EB
:10244000614990312068884204D05F49A8312068F2
:10245000884206D12068006820F0010021680860E9
:1024600005E02068006820F001002168086020680D
:10247000006820F00E0021680860524920688842F8
:1024800070D050491831206888426BD04D493031A6
:102490002068884266D04B4948312068884261D024
:1024A00048496031206888425CD0464978312068CC
:1024B000884257D0434990312068884252D04149E0
:1024C000A831206888424DD03F492068884249D0D1
:1024D0003D4918312068884244D03B49303120685A
:1024E00088423FD038494831206888423AD036493E
:1024F00060312068884235D033497831206888427D
:1025000030D031499031206888422BD02E49A831F3
:102510002068884226D02D492068884222D02B4945
:102520001431206888421DD028492831206888420B
:1025300018D026493C312068884213D023495031B5
:10254000206888420ED0214964312068884209D031
:102550001E4978312068884204D01C498C3120689B
:10256000884201D1012000E00020D8B1206E00682F
:1025700020F48070216E0860A56D94F85C0000F076
:102580001F01012088406860D4E919104860E06E9E
:1025900040B1E06E006820F48070E16E0860D4E91C
:1025A0001C104860012084F8350000BF002084F82A
:1025B000340000BF206D10B12046216D88470020F7
:1025C0003EE6000010000240100402400854025889
:1025D0002DE9F84F044600200090FE4800684FF4B3
:1025E0001651B0FBF1FAA66DD4F858803768D8F8C8
:1025F0000090F9492068884249D0F749183120688D
:10260000884244D0F4493031206888423FD0F249B2
:102610004831206888423AD0EF49603120688842CA
:1026200035D0ED4978312068884230D0EA49903180
:10263000206888422BD0E849A8312068884226D0FB
:10264000E6492068884222D0E4491831206888424F
:102650001DD0E24930312068884218D0DF49483126
:102660002068884213D0DD496031206888420ED04E
:10267000DA4978312068884209D0D84990312068F9
:10268000884204D0D549A8312068884201D1012070
:1026900000E0002000287DD094F85C0000F01F01CD
:1026A000082088403840002868D0CB4920688842FC
:1026B00049D0C94918312068884244D0C6493031D0
:1026C000206888423FD0C4494831206888423AD0C7
:1026D000C14960312068884235D0BF4978312068CF
:1026E000884230D0BC499031206888422BD0BA490A
:1026F000A8312068884226D0B8492068884222D074
:10270000B6491831206888421DD0B449303120685C
:10271000884218D0B14948312068884213D0AF4967
:102720006031206888420ED0AC49783120688842F8
:1027300009D0AA4990312068884204D0A749A8311D
:102740002068884204D12068006800F0040003E09B
:102750002068006800F0080080B12068006820F060
:1027600004002168086094F85C0000F01F01082054
:102770008840B060606D40F00100606594F85C00D6
:1027800000F01F01012088403840E8B392492068DA
:10279000884200E0B7E24BD08F4918312068884268
:1027A00046D08D4930312068884241D08A4948312D
:1027B000206888423CD0884960312068884237D000
:1027C000854978312068884232D083499031206829
:1027D00088422DD08049A8312068884228D07F497E
:1027E0002068884224D07D491831206888421FD053
:1027F0007A493031206888421AD0784948312068B7
:10280000884215D0754900E026E060312068884292
:102810000ED0724978312068884209D06F499031D2
:102820002068884204D06D49A8312068884204D1CC
:102830002068406900F0800002E020680068002005
:1028400050B194F85C0000F01F0101208840B06096
:10285000606D40F00200606594F85C0000F01F01BC
:10286000042088403840E8B35B49206888424BD058
:10287000594918312068884246D05749303120687C
:10288000884241D054494831206888423CD052495E
:1028900060312068884237D04F49783120688842BB
:1028A00032D04D499031206888422DD04A49A83114
:1028B0002068884228D049492068884224D0474966
:1028C0001831206888421FD044493031206888423E
:1028D0001AD0424948312068884215D03F496031BA
:1028E000206800E024E088420ED03C49783120681E
:1028F000884209D0394990312068884204D037494C
:10290000A8312068884204D12068006800F00200E5
:1029100002E020680068002050B194F85C0000F0EC
:102920001F0104208840B060606D40F004006065C5
:1029300094F85C0000F01F01102088403840E8B394
:1029400025492068884251D023491831206888429F
:102950004CD0214930312068884247D01E49483147
:102960002068884242D01C496031206888423DD0AE
:10297000194978312068884238D017499031206849
:10298000884233D01449A831206888422ED0134998
:10299000206888422AD0114918312068884225D001
:1029A0000E4930312068884220D00C4948312068D7
:1029B00088421BD009496031206800E04DE0884220
:1029C00014D006497831206888420FD003499031ED
:1029D000206805E0100000241000024010040240AE
:1029E000884203D0FE492068884204D120680068EC
:1029F00000F0080003E02068006800F0040060B305
:102A000094F85C0000F01F0110208840B06020683E
:102A1000006800F4802080B12068006800F4002085
:102A200028B9206CC8B12046216C884715E0A06CFD
:102A300098B12046A16C88470FE02068006800F438
:102A4000807028B92068006820F0080021680860BC
:102A5000206C10B12046216C884794F85C0000F08F
:102A60001F0120208840384000287DD0DD492068A3
:102A7000884249D0DB4918312068884244D0D9497E
:102A80003031206888423FD0D6494831206888429A
:102A90003AD0D44960312068884235D0D149783164
:102AA0002068884230D0CF499031206888422BD0AE
:102AB000CC49A8312068884226D0C949A839206865
:102AC000884221D0C6499039206888421CD0C44928
:102AD00078392068884217D0C14960392068884217
:102AE00012D0BF494839206888420DD0BC493039DE
:102AF0002068884208D0BA4918392068884203D033
:102B0000B7492068884204D12068006800F01000AE
:102B100003E02068006800F0020028B394F85C002D
:102B200000F01F0120208840B06094F83500042890
:102B30002DD12068006820F0160021680860206808
:102B4000406920F0800021684861206C08B9A06CC1
:102B500028B12068006820F008002168086094F817
:102B60005C0000F01F0100E03FE03F208840B060C3
:102B7000012084F8350000BF002084F8340000BF35
:102B8000206D10B12046216D8847BDE8F88F206880
:102B9000006800F4802080B12068006800F4002004
:102BA00028B1606C08B32046616C88471DE0E06B7B
:102BB000D8B12046E16B884717E02068006800F430
:102BC000807068B92068006820F0100021680860F3
:102BD000012084F8350000BF002084F8340000BFD5
:102BE000E06B10B12046E16B8847606D00287AD019
:102BF000606D00F00100E8B3042084F835007949E5
:102C0000206888424BD0774918312068884246D0E6
:102C1000744930312068884241D072494831206877
:102C200088423CD06F4960312068884237D06D4976
:102C300078312068884232D06A49903120688842D1
:102C40002DD06849A8312068884228D06449A83925
:102C50002068884223D062499039206888421ED07B
:102C60005F4978392068884219D05D496039206809
:102C7000884200E040E012D0594948392068884233
:102C80000DD0574930392068884208D05449183946
:102C90002068884203D052492068884206D12068C3
:102CA000006820F001002168086005E020680068E5
:102CB00020F001002168086000BF0098401C0090CF
:102CC000504500D905E02068006800F001000028A8
:102CD000F3D100BF2068006800F0010020B103209C
:102CE00084F8350003E00DE0012084F8350000BFD2
:102CF000002084F8340000BFE06C002802D0204699
:102D0000E16C8847D9E138492068884222D03649A9
:102D10001431206888421DD0334928312068884208
:102D200018D031493C312068884213D02E495031A7
:102D3000206888420ED02C4964312068884209D02E
:102D4000294978312068884204D027498C3120688D
:102D5000884201D1012000E000200028D2D0206864
:102D6000056894F85C0000F01F010420884000EA28
:102D70000900D8B305F00400C0B394F85C0000F07B
:102D80001F0104208840C8F8040005F4004080B109
:102D900005F4803030B1A06C0028B3D02046A16C7F
:102DA00088478AE1206C0028ACD02046216C8847F7
:102DB00083E105F02000E8BB0A492068884253D02F
:102DC00008491831206888424ED0064930312068C1
:102DD000884249D0034948312068884244D006E0FF
:102DE000B804024010000240085402584FE0B449B1
:102DF00060312068884237D0B149783120688842F4
:102E000032D0AF499031206888422DD0AC49A831EA
:102E10002068884228D0AB492068884224D0A9493C
:102E20001831206888421FD0A64930312068884276
:102E30001AD000E025E0A34948312068884213D029
:102E4000A0496031206888420ED09E4978312068C0
:102E5000884209D09B4990312068884204D0994922
:102E6000A8312068884206D12068006820F0080058
:102E70002168086005E02068006820F004002168EF
:102E80000860206C10B32046216C884715E194F847
:102E90005C0000F01F010220884000EA0900E8B34E
:102EA00005F00200D0B394F85C0000F01F0102208E
:102EB0008840C8F8040005F4004070B105F4803083
:102EC00028B9606C10B12046616C8847F5E0E06B72
:102ED000F0B32046E16B8847EFE005F02000C0BB6F
:102EE0007749206888424ED0754918312068884259
:102EF00049D0734930312068884244D07049483104
:102F0000206888423FD06E496031206888423AD0BC
:102F10006B4978312068884235D000E04EE068493E
:102F20009031206888422ED06549A83120688842B7
:102F300029D064492068884225D062491831206828
:102F4000884220D05F493031206888421BD001E0A0
:102F50006EE02DE05B4948312068884213D0594922
:102F60006031206888420ED0564978312068884206
:102F700009D0544990312068884204D05149A83181
:102F80002068884206D12068006820F0140021687B
:102F9000086005E02068006820F00A0021680860E9
:102FA000012084F8350000BF002084F8340000BF01
:102FB000E06BE8B32046E16B88477EE094F85C0064
:102FC00000F01F010820884000EA090080B305F0E6
:102FD000080068B33A49206888424BD03849183114
:102FE0002068884246D0364930312068884241D036
:102FF00033494831206888423CD0314960312068EB
:10300000884237D02E4978312068884232D02C4906
:103010009031206888422DD02949A8312068884203
:1030200028D028492068884224D02649183100E059
:1030300043E0206888421DD0224930312068884210
:1030400018D0204948312068884213D01D4960318A
:10305000206888420ED01B4978312068884209D008
:10306000184990312068884204D01649A831206858
:10307000884206D12068006820F01C0021680860A2
:1030800005E02068006820F00E002168086094F8D0
:103090005C0000F01F0101208840C8F804000120F6
:1030A000606584F8350000BF002084F8340000BF5C
:1030B000E06C10B12046E16C884700BF65E5000078
:1030C00010000240100402402DE9F041044601F0D6
:1030D0005FFD804614B90120BDE8F081FE492068FB
:1030E000884249D0FC4918312068884244D0FA49C6
:1030F0003031206888423FD0F74948312068884203
:103100003AD0F54960312068884235D0F2497831AB
:103110002068884230D0F0499031206888422BD016
:10312000ED49A8312068884226D0EC4920688842C1
:1031300022D0EA491831206888421DD0E749303151
:103140002068884218D0E54948312068884213D069
:10315000E2496031206888420ED0E0497831206829
:10316000884209D0DD4990312068884204D0DB498B
:10317000A8312068884201D1012000E00020002809
:1031800073D0606A00B100BF022084F8350000BF30
:10319000002084F8340000BFCF492068884249D01D
:1031A000CD4918312068884244D0CB49303120685D
:1031B00088423FD0C8494831206888423AD0C64941
:1031C00060312068884235D0C34978312068884210
:1031D00030D0C1499031206888422BD0BE49A831F7
:1031E0002068884226D0BD492068884222D0BB4949
:1031F0001831206888421DD0B84930312068884293
:1032000018D0B64948312068884213D0B34960319C
:10321000206888420ED0B14978312068884209D0B0
:10322000AE4990312068884204D0AC49A83120686A
:10323000884206D12068006820F0010021680860FB
:1032400005E02068006820F00100216808600DE0BA
:1032500001F09EFCA0EB0800052807D9202060653E
:10326000032084F83500012036E769E02068006813
:1032700000F001000028EBD120680568984805405F
:10328000D4E9020108432169084361690843A1693F
:103290000843E1690843216A08430543606A04283A
:1032A00003D1D4E90B01084305436068292802D300
:1032B00060682E2817D960683F2802D360684228CA
:1032C00011D96068472802D3606848280BD9606824
:1032D0004F2802D36068522805D96068742804D347
:1032E0006068772801D8012000E0002008B145F48B
:1032F0008015206805602068456925F00705606A2B
:103300000543606A04280DD1A06A0543E06A48B10C
:10331000204609F065FF28B140206065012084F84F
:103320003500D9E620684561204609F0B1FF064620
:1033300094F85C0000F01F013F208840B0609EE0E0
:1033400068492068884222D0664914312068884242
:103350001DD0644928312068884218D061493C3129
:103360002068884213D05F495031206888420ED0CF
:103370005C4964312068884209D05A497831206814
:10338000884204D057498C312068884201D10120FD
:1033900000E00020E0B353492068884222D0514920
:1033A0001431206888421DD04E4928312068884257
:1033B00018D04C493C312068884213D049495031DB
:1033C000206888420ED0474964312068884209D07D
:1033D000444978312068884204D042498C312068C1
:1033E000884201D1012000E0002000B100BF02208E
:1033F00084F8350000BF002084F8340000BF206846
:10340000056839480540A068402802D1102106E02F
:103410002EE0A068802801D1C10100E00021E06811
:1034200041EAD001206941EAD001606941EAD00156
:10343000A06941EAD001E06941EAD001206A41EA8D
:10344000101005432068056026492068401A1421A1
:10345000B0FBF1F08000E065204609F019FF074657
:1034600094F85C0000F01F0101208840786006E0BD
:1034700040206065032084F8350001202CE61649C1
:10348000206888427AD0144918312068884275D063
:10349000114930312068884270D00F494831206886
:1034A00088426BD00C4960312068884266D00A4956
:1034B00078312068884261D007499031206888427D
:1034C0005CD00549A8312068884257D0034920685C
:1034D000884253D0014909E0100002401004024024
:1034E0003F8010FE085402580F00FEFF183120687C
:1034F000884243D03749206888423FD03549183147
:10350000206888423AD0334930312068884235D02B
:10351000304948312068884230D02E4960312068D7
:1035200088422BD02B4978312068884226D02A49FE
:103530002068884222D028491431206888421DD052
:10354000254928312068884218D023493C31206819
:10355000884213D020495031206888420ED01E493D
:1035600064312068884209D01B497831206888423C
:1035700004D019498C312068884201D1012000E033
:10358000002000B3204609F0F9FEA068802801D190
:10359000002060602079216E0860D4E9191048602D
:1035A000606860B16068082809D8204609F048FFC3
:1035B0000020E16E0860D4E91C10486003E00020A0
:1035C000E0662067606700206065012084F83500B0
:1035D000002081E540040240085402582DE9F041E2
:1035E00004460D4616461F464FF0000814B9012048
:1035F000BDE8F08100BF94F83400012801D1022019
:10360000F6E7012084F8340000BF94F83500012863
:103610007ED1022084F8350000206065E4492068EE
:10362000884249D0E24918312068884244D0E049B4
:103630003031206888423FD0DD49483120688842D7
:103640003AD0DB4960312068884235D0D84978319A
:103650002068884230D0D6499031206888422BD0EB
:10366000D349A8312068884226D0D24920688842B0
:1036700022D0D0491831206888421DD0CD49303140
:103680002068884218D0CB4948312068884213D03E
:10369000C8496031206888420ED0C6497831206818
:1036A000884209D0C34990312068884204D0C1497A
:1036B000A8312068884206D12068006820F0010007
:1036C0002168086005E02068006820F0010021689A
:1036D00008603B4632462946204609F047FCB4497B
:1036E000206888424BD0B24918312068884246D0C1
:1036F000AF4930312068884241D0AD494831206817
:1037000088423CD0AA4960312068884237D000E026
:1037100042E1A74978312068884230D0A4499031ED
:10372000206888422BD0A249A8312068884226D040
:10373000A0492068884222D09E49183120688842DA
:103740001DD09C4930312068884218D099494831B1
:103750002068884213D097496031206888420ED093
:10376000944978312068884209D092499031206884
:10377000884204D08F49A8312068884201D10120B5
:1037800000E0002080B12068006820F01E0040F0BA
:10379000160021680860206CB0B12068006840F015
:1037A0000800216808600FE02068006820F00E0023
:1037B00040F00A0021680860206C28B12068006889
:1037C00040F004002168086079492068884270D080
:1037D00077491831206888426BD0754930312068AC
:1037E000884266D0724948312068884261D0704969
:1037F0006031206888425CD06D4978312068884209
:1038000057D06B4990312068884252D06849A8311E
:10381000206888424DD067492068884249D0654970
:1038200018312068884244D062493031206888428B
:103830003FD060494831206888423AD05D496031C4
:103840002068884235D05B4978312068884230D082
:1038500058499031206888422BD05649A8312068B9
:10386000884226D054492068884222D052491431D7
:10387000206888421DD0504928312068884218D0DD
:103880004D493C312068884213D04B495031206863
:1038900088420ED0484964312068884209D04649A0
:1038A00078312068884204D043498C3120688842AE
:1038B00001D1012000E0002090B1206E006800F4EA
:1038C000803028B1206E006840F48070216E08605E
:1038D000E06E28B1E06E006840F48070E16E086030
:1038E00033492068884249D03149183120688842DC
:1038F00044D02F493031206888423FD02C4948318C
:10390000206888423AD02A4960312068884235D000
:10391000274978312068884230D025499031206885
:1039200088422BD02249A8312068884226D02149DC
:103930002068884222D01F491831206888421DD053
:103940001C4930312068884218D01A494831206813
:10395000884213D017496031206888420ED015493B
:1039600078312068884209D0124990312068884215
:1039700004D01049A8312068884206D12068006828
:1039800040F001002168086010E02068006840F005
:1039900001002168086009E04FF40060606500BF25
:1039A000002084F8340000BF4FF0010840461FE6B5
:1039B00010000240100402400854025870B504463A
:1039C00001F0E6F806462546681C10B10448007868
:1039D000054400BF01F0DCF8801BA842FAD370BD9B
:1039E0000C00002430B5034693F89840012C01D018
:1039F000022C3ED11868806D084030B91868C06D3F
:103A000040F001001D68E8650EE01868806D084010
:103A1000884206D11868C06D40F002001D68E86554
:103A200002E003201D68E86501F4007030B11868F9
:103A3000D0F8E00010431D68C5F8E00001F4806094
:103A400030B11868D0F8E40010431D68C5F8E400F0
:103A500000BF1868406D0B4D0D4028431D68686518
:103A60000948006840EA9170074D286000BF0020B7
:103A700030BDD3F89C0040F00200C3F89C00012048
:103A8000F6E70000FFFFCF3F14A800402DE9F0410A
:103A900004460E461746706800B900E000BF94F86F
:103AA0009800022832D12068D0F8C00000F07C5085
:103AB00040B9D4F89C0040F02000C4F89C000120DC
:103AC000BDE8F0812068D0F8C40000F4001038B1DF
:103AD000D4F89C0040F40070C4F89C000120EFE78B
:103AE0002068D0F8C400C0F304452B463A4631465E
:103AF00020460AF0ADF90120A8402168C1F8D000A5
:103B00000120A840C4F894000020D9E7D4F89C0014
:103B100040F00800C4F89C000120D1E77047F0B5E0
:103B2000024692F89860012E01D0022E43D1C86857
:103B3000072800D100BF086818BBC868072800D054
:103B400000BFC86807280BD1088A4FF0605747EAC2
:103B50000040CF6940EA07208F6940EA07030AE086
:103B6000087A80070F7B40EAC7600F8A40EA074067
:103B70004F6940EA0703D76E486807EB800423606B
:103B800017E0C868072800D000BF0F7B086940EA2B
:103B90004773C868072801D18D6903E00F7A486927
:103BA00040EA8775176F486807EBC0042360241D3F
:103BB00025600020F0BDD2F89C0040F00200C2F861
:103BC0009C000120F6E770B50446049D94F8980027
:103BD00001280AD1080140EA820040EA4300284354
:103BE0002668C6F88000002070BDD4F89C0040F024
:103BF0000400C4F89C000120F6E7704770470000FD
:103C00002DE9F04304460D469C46002394F8988025
:103C1000B8F1020F7ED1402D3FD12068D0F8A0002E
:103C200000F4FE0040B9D4F89C0040F02000C4F835
:103C30009C000120BDE8F0832068D0F8A40000F0CB
:103C40007F0038B9D4F89C0040F48070C4F89C0020
:103C50000120EFE72068D0F8A400C0F30523206816
:103C6000D0F8A400C0F3006080B12068D0F8A000B4
:103C70004FF00109B9EBD07F08D12068D0F8A0003F
:103C8000C0F3064003F1010900EA0903606C5843E0
:103C9000D4F8749009EB800153E0412D40D12068A5
:103CA000D0F8B00000F4FE0038B9D4F89C0040F021
:103CB0002000C4F89C000120BCE72068D0F8B400C4
:103CC00000F07F0038B9D4F89C0040F48070C4F84C
:103CD0009C000120AEE72068D0F8B400C0F30523B3
:103CE0002068D0F8B400C0F3006080B12068D0F83C
:103CF000B0004FF00109B9EBD07F08D12068D0F8AF
:103D0000B000C0F3064003F1010900EA0903E06CCA
:103D1000584300E072E0D4F8789009EB800110E09D
:103D2000206DA84207D8D4F89C0040F02000C4F8C9
:103D30009C0001207EE7606D6843D4F87C9009EB1D
:103D40008001086800F080405060506820B9086821
:103D5000C0F38A40106003E0086820F06040106003
:103D6000086800F000509060086800F000401061A2
:103D7000091D088880B2D0610868C0F30340D06094
:103D8000086800F480105061086800F40010906129
:103D90000868C0F3066010620868C00F5062091D11
:103DA0000F46002603E0B85D0CF80600761CDFF82D
:103DB0005C90D06819F80000B042F4D8402D03D1CF
:103DC0002068C0F8A83017E0412D03D12068C0F862
:103DD000B83011E0202D06D20120A840D4F8009080
:103DE000C9F8980008E005F01F09012000FA09F061
:103DF000D4F80090C9F89C0000201BE7D4F89C0080
:103E000040F00800C4F89C00012013E73CED0008D6
:103E1000704700002DE9F04F8DB00446EF48006870
:103E20008707EE48001D006807EA80772068006D6C
:103E300000F470482068406D00EA08082068006DB2
:103E400000F00F092068406D00EA09092068006D44
:103E500000F0F00A2068406D00EA0A0A2068006D50
:103E600000F0715B2068406D00EA0B0B2068006D6C
:103E700000F060700C902068406D0C9908400C9028
:103E80002068456D2068066DC5F3002070B1C6F34B
:103E9000002058B100BF4FF48070216808650020F1
:103EA000CE49086000BF2046FFF7B2FFC5F380206F
:103EB000C8B1C6F38020B0B12068D0F8DC000A9009
:103EC0002068D0F8E4000A9908400A9000BF4FF437
:103ED0008060216808650020C049086000BF204656
:103EE0000A9900F0ADFC67B100BFBD4838402168B9
:103EF0000865B80FB949086000BF39462046FFF78A
:103F00000DFEB8F1000F0ED000BFB54808EA000062
:103F1000216808654FEA9870B049086000BF4146C3
:103F2000204600F08FFCB9F1000F0ED000BFAC4866
:103F300009EA0000216808654FEA9970A7490860FE
:103F400000BF4946204600F0BFFBBAF1000F0ED07B
:103F500000BFA3480AEA0000216808654FEA9A708A
:103F60009E49086000BF5146204600F0FBFBC5F3A8
:103F7000C02070B1C6F3C02058B100BF4FF400603C
:103F80002168086500209549086000BF204600F0C0
:103F90005AFCC5F34020C8B1C6F34020B0B1206838
:103FA000D0F8D8000B902068D0F8E0000B990840BA
:103FB0000B9000BF4FF4007021680865002087490E
:103FC000086000BF20460B9900F03BFCC5F3C040E1
:103FD00070B1C6F3C04058B100BF4FF40020216853
:103FE000086500207D49086000BF204600F06AFB9C
:103FF000C5F3004070B1C6F3004058B100BF4FF4A4
:1040000080302168086500207449086000BF2046A0
:1040100000F015FCC5F3804070B1C6F3804058B184
:1040200000BF4FF480202168086500206B490860BC
:1040300000BF204600F002FCC5F3404088B1C6F343
:10404000404070B100BF4FF4003021680865002087
:104050006249086000BFD4F89C0040F08000C4F8BA
:104060009C000C9870B100BF5D490C980840216815
:1040700008650C98800F5949086000BF20460C99CC
:10408000FFF7BCFDBBF1000F10D000BF54480BEA96
:104090000000216808654FEA9B705049086000BF26
:1040A000D4F89C0040EA0B00C4F89C004D492068FD
:1040B00088427DD16068806800F00300002877D0D6
:1040C0006068006A00F00F0009906068406A099912
:1040D000084009906068006A00F03000089060684D
:1040E000406A0899084008906068006A00F4C0704F
:1040F00007906068406A0799084007906068006A06
:1041000000F4FC4006906068406A069908400690FA
:104110006068006A00F4F02005906068406A0599C4
:10412000084005906068406A02906068006A0190EB
:10413000099830B10998616808622046099900F031
:104140007AFB089830B1089861680862204608999F
:1041500000F073FB0298C0F38010A0B10198C0F387
:10416000801080B16068C06B000C04906068C06B08
:1041700000F03F0003904020616808622046DDE9BE
:10418000032100F059FB079830B107986168086275
:104190002046079900F04EFB069840B106986168EA
:1041A0000862D4F89C0006990843C4F89C0000E01B
:1041B0000AE0059840B1059861680862D4F89C004F
:1041C00005990843C4F89C00D4F89C0010B120461F
:1041D000FFF713FD0DB0BDE8F08F000010A8004000
:1041E000FFFFCF3F00A0004070B594B004464C22C2
:1041F000B34901A8FCF719FA14B9012014B070BD35
:10420000B0492068884203D1206800F58070606062
:10421000A068B0F5407F00D100BF206C00B100BFA6
:10422000A06C00B100BF206D00B100BF206E00B1D6
:1042300000BFD4E91710084400B100BF94F89800FB
:1042400028B9002084F89900204600F03DF9206844
:10425000806920F010002168886100F099FC054613
:104260000EE000F095FC401B0A2809D998346068DC
:1042700040F001006060032004F898090120BDE7C8
:104280002068806900F008000828EAD0206880696A
:1042900040F001002168886100F07AFC05460EE0DC
:1042A00000F076FC401B0A2809D99834606840F079
:1042B00001006060032004F8980901209EE720684F
:1042C000806900F001000028EAD02068806940F091
:1042D000020021688861207C012806D1206880695D
:1042E00020F040002168886105E02068806940F086
:1042F000400021688861607C012806D120688069BF
:1043000040F480402168886105E02068806920F4DD
:10431000804021688861A07C012806D120688069DE
:1043200020F480502168886105E02068806940F4AD
:104330008050216888612068806920F44070A168FD
:104340000843216888612068806920F0A400216802
:1043500088612068006920F0100021680861E06829
:10436000012806D12068806940F004002168886136
:1043700020E0E068F0B1E068022815D0206880698C
:1043800040F08000216888612068006940F01000DA
:1043900021680861E06803280CD12068806940F03A
:1043A00020002168886105E02068806940F02000D5
:1043B00021688861207E401E4106E069401E41EA76
:1043C0000020216A491E0843A18A491E40EA014093
:1043D0002168C861A068B0F5407F0FD1A06A401E77
:1043E000E16A491E40EA0121206B401E41EA0011AA
:1043F000A08C401E41EA00402168C860206E38B1A0
:104400002068D0F8C000616E08432168C1F8C00080
:10441000D4E91710084460B12068D0F8C80020F033
:10442000070001AAA16E52F8211008432168C1F8C3
:10443000C800206C60B12068D0F8BC0020F00700F4
:1044400001AA616C52F8211008432168C1F8BC0030
:10445000A06C68B12068D0F8BC0020F0700101AAFF
:10446000E06C52F8200041EA00102168C1F8BC005D
:10447000206D68B12068D0F8BC0020F4E06101AA8A
:10448000606D52F8200041EA00202168C1F8BC00AC
:104490000C492068884205D16068806820F00300DC
:1044A00061688860002044F8940FA06001202071AA
:1044B000943C204609F034FD064630469EE6000056
:1044C0004CED000800A0004010B5B6B00446142121
:1044D00030A8FCF7DCF8B82102A8FCF7D8F872493C
:1044E0002068884249D14FF400410020CDE90210F4
:1044F00048031D9002A800F0A3FE08B1FDF71BFCC5
:104500006A480068401C694908600846006801283C
:104510000DD100BF6648006840F4807064490860AF
:104520000846006800F48070019000BF00BF00BF23
:104530005F480C38006840F008005D490C3908609D
:104540000846006800F00800019000BF00BF03208B
:104550003090022031900020329033900920349026
:1045600030A9544800F008FA00221146132000F048
:10457000A3FB132000F08CFB93E04F492068884296
:1045800049D14FF400410020CDE9021048031D90AD
:1045900002A800F055FE08B1FDF7CDFB43480068C6
:1045A000401C424908600846006801280DD100BF40
:1045B0003F48006840F480703D4908600846006844
:1045C00000F48070019000BF00BF00BF38480C3875
:1045D000006840F0020036490C390860084600685F
:1045E00000F00200019000BF00BF60203090022068
:1045F00031900020329033900920349030A92F4818
:1046000000F0BAF900221146142000F055FB1420E6
:1046100000F03EFB45E02A492068884241D14FF432
:1046200000410020CDE9021048031D9002A800F0CF
:1046300007FE08B1FDF77FFB1C480068401C1B49C2
:1046400008600846006801280DD100BF18480068BE
:1046500040F48070164908600846006800F48070D5
:10466000019000BF00BF00BF11480C38006840F047
:1046700008000F490C3908600846006800F008007F
:10468000019000BF00BF4FF44050309002203190A5
:104690000020329033900520349030A9054800F076
:1046A0006BF936B010BD000000A0004000000024EF
:1046B000EC440258000C025800A4004000040258C8
:1046C00000D400407047000070B504460D461F49F5
:1046D0002068884210D11E4BA3F1280240212046B9
:1046E000FFF78EFA1A482C38406B70B318482C38F4
:1046F000416B001D884728E016492068884210D188
:10470000154BA3F1280240212046FFF779FA124801
:104710002C38406BC8B110482C38416B001D8847BD
:1047200013E00E49206888420FD10D4BA3F12802F7
:1047300040212046FFF764FA09482C38406B20B12D
:1047400007482C38416B001D884770BD00A0004011
:10475000780D002400A40040B00D002400D40040D7
:10476000E80D002470B504460D461F4920688842B4
:1047700010D11E4BA3F1280241212046FFF740FA39
:104780001A482C38406B70B318482C38416B001D08
:10479000884728E016492068884210D1154BA3F1BC
:1047A000280241212046FFF72BFA12482C38406B93
:1047B000C8B110482C38416B001D884713E00E49E2
:1047C000206888420FD10D4BA3F1280241212046D9
:1047D000FFF716FA09482C38406B20B107482C38EF
:1047E000416B001D884770BD00A00040780D00247B
:1047F00000A40040B00D002400D40040E80D0024C7
:10480000014691F8980001280CD1022081F8980007
:104810000868806920F001000A6890610020C1F8F2
:104820009C007047D1F89C0040F00400C1F89C0047
:104830000120F6E770477047704770477047704730
:10484000704770477047704710B50446012C03D17C
:1048500032494868804760E0022C03D130494868FB
:1048600080475AE0042C03D12E494868804754E021
:10487000082C03D12C49486880474EE0102C03D106
:104880002A494868804748E0202C03D128494868D5
:10489000804742E0402C03D12649486880473CE0ED
:1048A000802C03D124494868804736E0B4F5807FE6
:1048B00003D12249486880472FE0B4F5007F03D137
:1048C0001F494868804728E0B4F5806F03D11D492F
:1048D0004868804721E0B4F5006F03D11A49486861
:1048E00080471AE0B4F5805F03D1184948688047D3
:1048F00013E0B4F5005F03D11549486880470CE028
:10490000B4F5804F03D113494868804705E0B4F5FA
:10491000004F02D110494868804710BD180100249B
:104920002001002428010024300100243801002443
:1049300040010024480100245001002458010024B3
:104940006001002468010024700100247801002423
:1049500080010024880100249001002410B5044641
:1049600004480068204020B1024804602046FFF758
:104970006BFF10BD88000058F8B502460023714D4A
:10498000DAE001279F400E6806EA0704002C7AD07F
:104990000E7906F00306012E04D00E7906F0030608
:1049A000022E13D190685F000326BE40B0435F0023
:1049B000CE68BE4030439060506801269E40B043B0
:1049C0000E79C6F300169E40304350600E7906F013
:1049D0000306032E07D10E7906F00306032E0CD131
:1049E0008E68012E09D0D0685F000326BE40B04318
:1049F0005F008E68BE403043D0600E7906F003063B
:104A0000022E13D1DF0802F1200656F827005E07B8
:104A1000F70E0F26BE40B0435F07FF0E0E69BE4083
:104A20003043DF0802F1200646F8270010685F00D7
:104A30000326BE40B0430E7906F003065F00BE4079
:104A4000304310604E6806F44036002E73D000BF2D
:104A50003D4E366846F002063B4F3E603E463668A5
:104A600006F00206009600BF00BF384E9F0856F8B9
:104A700027009E07370F0F26BE40B043344EB24288
:104A800002D1002629E056E0324EB24201D1012681
:104A900023E0314EB24201D102261EE02F4EB24237
:104AA00001D1032619E02E4EB24201D1042614E0B2
:104AB0002C4EB24201D105260FE02B4EB24201D15D
:104AC00006260AE0294EB24201D1072605E0284E0B
:104AD000B24201D1092600E00A269F073F0FBE40DF
:104AE00030431A4E9F0846F827004FF0B046306812
:104AF000A0434E6806F4801606B120434FF0B0463E
:104B000030607068A0434E6806F4001606B120437A
:104B10004FF0B04670606868A0434E6806F40036F7
:104B200006B1204368602868A0434E6806F48036CA
:104B300006B1204328605B1C0E68DE40002E7FF427
:104B400020AFF8BD80000058F44402580804005813
:104B5000000002580004025800080258000C0258D5
:104B6000001002580014025800180258001C025885
:104B700000240258024613690B400BB1012000E0EB
:104B8000002070470AB1816101E00B048361704726
:104B900001480068704700000400002403480068D2
:104BA000034909780844014908607047040000245B
:104BB0000C00002410B5032000F0BCF801F07EFBCF
:104BC00010490968C1F303210F4A515C01F01F012C
:104BD00020FA01F40B48006800F00F001146085C51
:104BE00000F01F0024FA00F008490860084804603B
:104BF0000F2000F00FF808B1012010BD00F036F8CA
:104C00000020FAE718440258C0ED00081400002400
:104C10001000002470B504461148007808B901203E
:104C200070BD0F4800784FF47A71B1FBF0F00D4978
:104C30000968B1FBF0F5284602F00EF808B1012032
:104C4000EEE7102C07D200222146501E00F034F867
:104C50000548046001E00120E2E70020E0E70000F1
:104C60000C000024100000240800002408B500BF38
:104C70000648006840F002000449086008460068E1
:104C800000F00200009000BF00BF08BDF4440258CD
:104C90000146084600280DDB00BF00BF00F01F03DF
:104CA00001229A4043099B0003F1E023C3F800214D
:104CB00000BF00BF00BF70472DE9F05F80460D4682
:104CC000164609F051FA074639462A46334601F09E
:104CD0000700C0F1070ABAF1040F02D94FF0040A25
:104CE00001E0C0F1070AD14600F1040ABAF1070F4A
:104CF00002D24FF0000A01E0A0F1030AD4464FF0BF
:104D0000010A0AFA09FAAAF1010A0AEA020A0AFAE7
:104D10000CFA4FF0010B0BFA0CFBABF1010B0BEA99
:104D2000030B4AEA0B042146404609F009FABDE8A4
:104D3000F09F000000BF00F00702064B19684FF615
:104D4000FF031940044B0B4343EA0221014B196056
:104D500000BF70470CED00E00000FA0570B5044696
:104D600015480068C0F3800048B91348006800F097
:104D70000700A04201D0012070BD0020FCE70E48D2
:104D8000006820F0070020430B490860FFF700FF90
:104D9000054607E0FFF7FCFE401BB0F57A7F01D91E
:104DA0000120E9E7044808380068C0F340300028D3
:104DB000F0D00020E0E700000C48025810B501F0E8
:104DC00033FA05490968C1F30211044A515C01F044
:104DD0001F01C84010BD000020440258C0ED00086B
:104DE00070B50146844D2D6805F00303824D2D6892
:104DF000C5F30530804D2D1D2D68C5F300147E4D83
:104E000014352D68C5F3CC0515FB04F501EE105AD9
:104E1000B8EE411AF0EE410A00286FD023B1012B01
:104E20004ED0022B6BD16BE0734D283D2D68C5F33E
:104E300040153DB3704D283D2D68C5F3C1066F4D3B
:104E400025FA06F201EE102AF8EE411A01EE100AD8
:104E5000B8EE411A81EE812A9FED691AC0EE811ADF
:104E6000654D10352D68C5F3080501EE105AB8EEF2
:104E7000411A31EE811AF7EE001A31EE211A22EEB4
:104E8000010A1CE001EE100AB8EE411ADFED5D1ACE
:104E900081EE812A9FED5A1AC0EE811A564D1035C7
:104EA0002D68C5F3080501EE105AB8EE411A31EE2F
:104EB000811AF7EE001A31EE211A22EE010A5BE0A8
:104EC00001EE100AB8EE411ADFED4F1A81EE812A89
:104ED0009FED4B1AC0EE811A474D10352D68C5F372
:104EE000080501EE105AB8EE411A31EE811AF7EEBC
:104EF000001A31EE211A22EE010A3DE077E01DE0B2
:104F000001EE100AB8EE411A9FED402AC2EE011AD6
:104F10009FED3B1A80EE812A374D10352D68C5F381
:104F2000080501EE105AB8EE411A32EE011AB7EE3A
:104F3000002A31EE021A21EE810A1DE001EE100A6C
:104F4000B8EE411ADFED301A81EE812A9FED2C1A5E
:104F5000C0EE811A284D10352D68C5F3080501EE05
:104F6000105AB8EE411A31EE811AF7EE001A31EEFE
:104F7000211A22EE010A00BF00BF1F4D10352D6817
:104F8000C5F3462501EE105AB8EE411AF7EE001AA5
:104F900031EE211AC0EE011ABCEEE11A81ED001AC1
:104FA000154D10352D68C5F3064501EE105AB8EEC3
:104FB000411AF7EE001A31EE211AC0EE011ABCEECA
:104FC000E11A81ED011A0C4D10352D68C5F3066507
:104FD00001EE105AB8EE411AF7EE001A31EE211A1E
:104FE000C0EE011ABCEEE11A81ED021A03E00025C1
:104FF0000D604D608D6070BD284402580090D00354
:10500000000000460024744C0024744A001BB74B77
:1050100070B50146844D2D6805F00303824D2D685F
:10502000C5F30550804D2D1D2D68C5F300247E4D20
:105030001C352D68C5F3CC0515FB04F501EE105A9F
:10504000B8EE411AF0EE410A00286FD023B1012BCF
:105050004ED0022B6BD16BE0734D283D2D68C5F30C
:1050600040153DB3704D283D2D68C5F3C1066F4D09
:1050700025FA06F201EE102AF8EE411A01EE100AA6
:10508000B8EE411A81EE812A9FED691AC0EE811AAD
:10509000654D18352D68C5F3080501EE105AB8EEB8
:1050A000411A31EE811AF7EE001A31EE211A22EE82
:1050B000010A1CE001EE100AB8EE411ADFED5D1A9C
:1050C00081EE812A9FED5A1AC0EE811A564D18358D
:1050D0002D68C5F3080501EE105AB8EE411A31EEFD
:1050E000811AF7EE001A31EE211A22EE010A5BE076
:1050F00001EE100AB8EE411ADFED4F1A81EE812A57
:105100009FED4B1AC0EE811A474D18352D68C5F337
:10511000080501EE105AB8EE411A31EE811AF7EE89
:10512000001A31EE211A22EE010A3DE077E01DE07F
:1051300001EE100AB8EE411A9FED402AC2EE011AA4
:105140009FED3B1A80EE812A374D18352D68C5F347
:10515000080501EE105AB8EE411A32EE011AB7EE08
:10516000002A31EE021A21EE810A1DE001EE100A3A
:10517000B8EE411ADFED301A81EE812A9FED2C1A2C
:10518000C0EE811A284D18352D68C5F3080501EECB
:10519000105AB8EE411A31EE811AF7EE001A31EECC
:1051A000211A22EE010A00BF00BF1F4D18352D68DD
:1051B000C5F3462501EE105AB8EE411AF7EE001A73
:1051C00031EE211AC0EE011ABCEEE11A81ED001A8F
:1051D000154D18352D68C5F3064501EE105AB8EE89
:1051E000411AF7EE001A31EE211AC0EE011ABCEE98
:1051F000E11A81ED011A0C4D18352D68C5F30665CD
:1052000001EE105AB8EE411AF7EE001A31EE211AEB
:10521000C0EE011ABCEEE11A81ED021A03E000258E
:105220000D604D608D6070BD284402580090D00321
:10523000000000460024744C0024744A001BB74B45
:105240002DE9F04104460025A8464FF00062D4E95C
:10525000001011400020134659404040014331D115
:10526000606E48B1B0F5801F0DD0B0F5001F11D0B1
:10527000B0F5401F16D114E0FE48006840F400303D
:10528000FC49086010E0022104F1080008F074FFF6
:10529000054609E0022104F1280009F01FF805463F
:1052A00002E001E0012500BF00BF55B9F1482430FC
:1052B000006820F44010616E0843EE492431086014
:1052C00000E0A8464FF48072D4E90010114000209D
:1052D00013465940404001432ED1A06D05281BD2F2
:1052E000DFE800F0030A11181900E248006840F4F2
:1052F0000030E049086011E0002104F1080008F0E6
:105300003BFF05460AE0002104F1280008F0E6FF13
:10531000054603E002E001E0012500BF00BF55B9EA
:10532000D4482430006820F00700A16D0843D1491B
:105330002431086000E0A8464FF48062D4E90010F0
:105340001140002013465940404001433DD1D4F85C
:10535000A400B0F5C00F24D007DC68B1B0F5001F81
:1053600011D0B0F5800F1FD114E0B0F5000F19D0A7
:10537000B0F5200F18D116E0BE48006840F40030A8
:10538000BC49086012E0002104F1080008F0F4FEB6
:1053900005460BE0002104F1280008F09FFF0546B8
:1053A00004E003E002E001E0012500BF00BF5DB9B9
:1053B000B0482C30006820F46000D4F8A4100843F2
:1053C000AC492C31086000E0A8464FF40062D4E9F3
:1053D00000011040002113465840494008433DD188
:1053E000D4F8A800B0F1407F24D007DC68B1B0F158
:1053F000807F11D0B0F1007F1FD114E0B0F1806F39
:1054000019D0B0F1A06F18D116E09A48006840F4A6
:1054100000309849086012E0002104F1080008F00B
:10542000ABFE05460BE0002104F1280008F056FF12
:10543000054604E003E002E001E0012500BF00BFF3
:105440005DB98C482C30006820F0E060D4F8A810DA
:10545000084388492C31086000E0A8464FF00073EB
:10546000D4E900101940002059404040014328D1A0
:10547000E06CA8B1102804D0202809D0302810D121
:105480000DE07C48006840F400307A4908600AE08A
:10549000022104F1080008F06FFE054603E002E077
:1054A00001E0012500BF00BF55B9724820300068F7
:1054B00020F03000E16C08436E492031086000E0C4
:1054C000A8464FF48053D4E90010194000205940F9
:1054D0004040014337D1E06DB0F5005F1AD004DCE5
:1054E00050B1B0F5805F1ED10DE0B0F5405F18D02F
:1054F000B0F5804F17D115E05E48006840F40030E9
:105500005C49086011E0002104F1080008F034FE55
:1055100005460AE0002104F1280008F0DFFE0546F8
:1055200003E002E001E0012500BF00BF55B951488A
:105530002430006820F4E040E16D08434D492431F7
:10554000086000E0A8464FF40053D4E90010194069
:10555000002059404040014335D1206EB0F5403F16
:105560001ED007DC68B1B0F5803F0BD0B0F5003F2E
:1055700019D10EE0B0F5802F13D0B0F5A02F12D1C5
:1055800010E012E0012104F1080008F0F5FD0546E5
:105590000BE0012104F1280008F0A0FE054604E01C
:1055A00003E002E001E0012500BF00BF55B931482A
:1055B0002430006820F4E020216E08432D49243176
:1055C000086000E0A8464FF48042D4E90001104092
:1055D0000021134658404940084337D1D4F8AC0065
:1055E000B0F1405F1ED007DC68B1B0F1805F0BD036
:1055F000B0F1005F19D10EE0B0F1804F13D0B0F1DF
:10560000A04F12D110E012E0012104F1080008F0CF
:10561000B3FD05460BE0012104F1280008F05EFE11
:10562000054604E003E002E001E0012500BF00BF01
:105630005DB910482C30006820F0E040D4F8AC1080
:1056400008430C492C31086000E0A8464FF40043A1
:10565000D4E90001184000215840494008432AD1AC
:10566000E06EB8B1B0F1805F06D0B0F1005F12D14A
:1056700009E000002C440258F948006840F400306A
:10568000F749086009E0012104F1080008F074FD01
:10569000054602E001E0012500BF00BF55B9F04812
:1056A0002430006820F04050E16E0843EC4924317A
:1056B000086000E0A8464FF08073D4E9001019405C
:1056C000002059404040014328D1A06CA8B10128D6
:1056D00004D0022809D0032810D10DE0E04800686A
:1056E00040F40030DE4908600AE0022104F10800BD
:1056F00008F042FD054603E002E001E0012500BF9D
:1057000000BF55B9D6482030006820F00300A16CD6
:105710000843D3492031086000E0A8464FF48003D5
:10572000D4E90010194000205940404001437DD188
:10573000CC48006840F48070CA490860FFF728FA36
:10574000064606E0FFF724FA801B642801D90325EA
:1057500005E0C448006800F480700028F2D000BF63
:1057600085BBBF484430006800F44070B4F8B01006
:1057700001F44071884213D0B9484430006820F4E5
:105780004077B7484430006840F48030B449443131
:1057900008600846006820F480300860084607600A
:1057A000D4F8B000B0F5807F15D1FFF7F1F90646C7
:1057B00009E0FFF7EDF9801B41F28831884202D9F8
:1057C000032507E038E0A64844300068C0F34000F5
:1057D0000028EED000BF55BB00BFB4F8B00000F405
:1057E0004070B0F5407F0ED19D481C38006820F411
:1057F0007C519D4AD4F8B000104041EA10109849FD
:105800001C39086007E096481C38006820F47C507A
:1058100093491C390860924844300068B4F8B010CD
:10582000C1F30B0108438E49443101E005E001E07A
:10583000086002E0A84600E0A8460122D4E9000181
:1058400010400021134658404940084330D1A06F12
:1058500018281AD005DC48B1082808D0102817D11C
:105860000CE0202812D0282812D110E012E00121EB
:1058700004F1080008F080FC05460BE0012104F16A
:10588000280008F02BFD054604E003E002E001E0FB
:10589000012500BF00BF55B971482830006820F0CD
:1058A0003800A16F08436E492831086000E0A8461F
:1058B0000223D4E900101940002059404040014320
:1058C00029D1606F062816D2DFE800F003040B121E
:1058D000131412E0012104F1080008F04DFC054604
:1058E0000BE0012104F1280008F0F8FC054604E073
:1058F00003E002E001E0012500BF00BF55B95848B0
:105900002830006820F00700616F084354492831AF
:10591000086000E0A8460422D4E9001011400020ED
:1059200013465940404001432BD1D4F8900006283B
:1059300016D2DFE800F003040B12131412E0012169
:1059400004F1080008F018FC05460BE0012104F101
:10595000280008F0C3FC054604E003E002E001E093
:10596000012500BF00BF5DB93D482C30006820F024
:105970000700D4F89010084339492C31086000E042
:10598000A8462023D4E9000118400021584049408E
:10599000084337D1D4F88C00B0F1405F1ED007DC4B
:1059A00068B1B0F1805F0BD0B0F1005F19D10EE0AB
:1059B000B0F1804F13D0B0F1A04F12D110E012E03F
:1059C000002104F1080008F0D7FB05460BE0022196
:1059D00004F1280008F082FC054604E003E002E040
:1059E00001E0012500BF00BF5DB91D4828300068F7
:1059F00020F0E040D4F88C100843194928310860A1
:105A000000E0A8464023D4E9001019400020594086
:105A1000404001433CD1D4F89800B0F5406F25D008
:105A200007DC68B1B0F5806F0BD0B0F5006F20D106
:105A30000EE0B0F5805F1AD0B0F5A05F19D117E085
:105A400019E0002104F1080008F096FB054612E079
:105A5000022104F1280008F041FC05460BE000009B
:105A60002C44025800480258FFFCFF0F03E002E0FC
:105A700001E0012500BF00BF4DB9FE48006820F4D9
:105A8000E050D4F898100843FA49086000E0A846AE
:105A90008023D4E9001019400020594040400143C0
:105AA00035D1D4F89C00B0F5C04F1ED007DC68B1EA
:105AB000B0F5005F0BD0B0F5804F19D10EE0B0F516
:105AC000004F13D0B0F5204F12D110E012E00021AA
:105AD00004F1080008F050FB05460BE0022104F138
