:020000040800F2
:1000000018310024B1030008A57C0008A173000882
:10001000A17C000843070008358A000800000000A2
:10002000000000000000000000000000AB7C0008A1
:10003000D907000800000000A97C0008AD7C00087A
:10004000CB030008CB030008CB030008CB03000858
:10005000CB030008CB030008CB030008CB03000848
:10006000CB030008CB030008CB03000849070008B6
:100070005907000869070008790700088907000880
:1000800099070008A9070008CB0300080508000825
:1000900015080008CB030008CB030008CB030008B9
:1000A000CB030008CB030008CB030008CB030008F8
:1000B000CB030008CB030008957D0008CB030008A4
:1000C000CB030008CB030008CB030008CB030008D8
:1000D000CB030008158A0008258A0008CB03000816
:1000E000DB070008CB03000800000000CB0300087A
:1000F000CB030008CB030008CB030008B9070008B6
:10010000CB030008CB030008A57D0008CB03000843
:10011000CB03000855800008CB030008CB03000880
:10012000C9070008CB030008CB030008CB03000875
:10013000CB030008CB030008CB030008CB03000867
:1001400000000000000000000000000000000000AF
:10015000CB030008CB030008CB030008CB03000847
:10016000CB030008CB030008CB030008CB03000837
:10017000CB030008CB030008CB03000800000000FD
:10018000CB030008CB0300086580000875800008D9
:10019000CB030008CB030008CB030008CB03000807
:1001A000CB030008CB030008CB03000800000000CD
:1001B000CB030008CB030008CB030008CB030008E7
:1001C000CB030008CB030008000000000000000083
:1001D0000000000000000000CB0300080000000049
:1001E000000000000000000000000000000000000F
:1001F0000000000000000000CB030008CB03000853
:10020000CB030008CB03000800000000CB0300086C
:10021000CB030008CB030008CB030008CB03000886
:10022000CB03000800000000CB0300080000000022
:10023000CB030008CB03000800000000CB0300083C
:10024000CB030008CB030008CB030008CB03000856
:10025000CB030008CB030008CB030008CB03000846
:10026000CB030008CB030008CB030008CB03000836
:10027000CB030008CB030008CB03000800000000FC
:10028000CB030008CB030008CB030008CB03000816
:1002900000000000CB030008CB03000800000000B2
:1002A00000000000CB030008CB030008CB030008CC
:1002B000058A0008CB030008CB03000825080008C6
:1002C000CB030008CB030008CB03000800F002F8C2
:1002D00000F05EF80AA090E8000C82448344AAF182
:1002E0000107DA4501D100F053F8AFF2090EBAE880
:1002F0000F0013F0010F18BFFB1A43F0010318475A
:1003000038D7000058D700000A444FF0000C10F80E
:10031000013B13F0070408BF10F8014B1D1108BF83
:1003200010F8015B641E05D010F8016B641E01F823
:10033000016BF9D113F0080F1EBF10F8014BAD1C73
:100340000C1B09D16D1E58BF01F801CBFAD505E091
:1003500014F8016B01F8016B6D1EF9D59142D6D3EB
:10036000704700000023002400250026103A28BF13
:1003700078C1FBD8520728BF30C148BF0B60704717
:100380001FB50DF005FA00F081F91FBD10B510BDC5
:1003900000F0A2F91146FFF7F3FF0DF07BF900F032
:1003A000C0F903B4FFF7F2FF03BC00F0C3F900008B
:1003B0000948804709480047FEE7FEE7FEE7FEE7F9
:1003C000FEE7FEE7FEE7FEE7FEE7FEE70448054935
:1003D000054A064B70470000B57C0008CD020008B6
:1003E000182B002418310024182D0024182D002467
:1003F00053EA020C00F069802DE9F04B4FF0000643
:10040000002B1FBFB3FA83F503FA05F424FA05F6AF
:100410005E4012BF1643B2FA82F502FA05F4C5F146
:1004200020051EBF22FA05FC44EA0C04203556EADA
:10043000044C4FEA144418BF641C4FF000084FF0FE
:100440000009904271EB030C39D3002919BFB1FAAE
:1004500081F701FA07F6B0FA80F700FA07F6C7F15C
:1004600020071EBF20FA07FC46EA0C062037B6FB21
:10047000F4FCA7EB0507103F07F01F0BCBF120069C
:100480000CFA0BFB2CFA06F644BFB3460026202FCD
:10049000A4BF5E464FF0000B5BEA060C08BF4FF0AE
:1004A000010B19EB0B09ABFB027C48EB0608C01BE8
:1004B00006FB02CC0BFB03CC71EB0C01C1E70B4636
:1004C000024641464846BDE8F08B13B54FF00000A8
:1004D0004FF00001AFF30080BDE81C407047B2F15F
:1004E00020030AD5C2F1200301FA02F120FA03F336
:1004F00000FA02F041EA0301704700FA03F14FF0FD
:1005000000007047032A40F2308010F0030C00F026
:10051000158011F8013BBCF1020F624498BF11F83D
:1005200001CB00F8013B38BF11F8013BA2F10402F6
:1005300098BF00F801CB38BF00F8013B11F003036E
:1005400000F02580083AC0F0088051F8043B083AD2
:1005500051F804CBA0E80810F5E7121D5CBF51F874
:10056000043B40F8043BAFF30080D20724BF11F8EE
:10057000013B11F801CB48BF11F8012B24BF00F853
:10058000013B00F801CB48BF00F8012B704710B5C4
:10059000203AC0F00B80B1E81850203AA0E818507B
:1005A000B1E81850A0E81850BFF4F5AF5FEA027C3C
:1005B00024BFB1E81850A0E8185044BF18C918C0AB
:1005C000BDE810405FEA827C24BF51F8043B40F84C
:1005D000043B08BF7047D20728BF31F8023B48BF31
:1005E00011F8012B28BF20F8023B48BF00F8012B6F
:1005F00070474FF000020429C0F0128010F0030C85
:1006000000F01B80CCF1040CBCF1020F18BF00F805
:10061000012BA8BF20F8022BA1EB0C0100F00DB8B4
:100620005FEAC17C24BF00F8012B00F8012B48BF12
:1006300000F8012B70474FF0000200B513469446B6
:100640009646203922BFA0E80C50A0E80C50B1F12A
:100650002001BFF4F7AF090728BFA0E80C5048BF3E
:100660000CC05DF804EB890028BF40F8042B08BFDC
:10067000704748BF20F8022B11F0804F18BF00F8D8
:10068000012B7047704770477047000070B5064CEB
:100690007C44064D7D4403E0206820448047241DAF
:1006A000AC42F9D170BD0000C4D30000CCD300002F
:1006B00010B500F009F8006810BD10B5044600F050
:1006C00003F8046010BD000000487047B82A0024F9
:1006D00000487047B82A00247546FFF7F9FFAE4678
:1006E00005006946534620F00700854618B020B53E
:1006F000FFF76CFEBDE820404FF000064FF000070A
:100700004FF000084FF0000B21F00701AC46ACE8B9
:10071000C009ACE8C009ACE8C009ACE8C0098D4626
:10072000704710B50446AFF300802046BDE8104086
:10073000FFF737BE01491820ABBEFEE726000200D6
:10074000704700BFFEE7000010B5024800F0ACFCA7
:1007500010BD00005C09002410B5024800F0A4FCA4
:1007600010BD00003C0B002410B5024800F09CFCBA
:1007700010BD0000B40B002410B5024800F094FC3A
:1007800010BD00002C0C002410B5024800F08CFCB9
:1007900010BD0000A40C002410B5024800F084FC39
:1007A00010BD0000D409002410B5024800F07CFC04
:1007B00010BD00004C0A002410B5024800F074FC83
:1007C00010BD0000C40A002410B5024800F06CFC03
:1007D00010BD0000E4080024704710B54FF480609D
:1007E00002F030FE4FF4006002F02CFE4FF4805017
:1007F00002F028FE4FF4804002F024FE10BD72B6D5
:1008000000BFFEE710B5024802F070F810BD00000E
:10081000C801002410B5024802F068F810BD0000BD
:100820006802002410B5024802F060F810BD000014
:10083000080300242DE9F041044602F01DFF804624
:1008400014B90120BDE8F08194F83500022808D0E1
:100850008020606500BF002084F8340000BF0120C4
:10086000F0E7FE492068884249D0FC4918312068E9
:10087000884244D0F9493031206888423FD0F74956
:100880004831206888423AD0F44960312068884273
:1008900035D0F24978312068884230D0EF49903124
:1008A000206888422BD0ED49A8312068884226D0A4
:1008B000EB492068884222D0E949183120688842F3
:1008C0001DD0E74930312068884218D0E4494831CA
:1008D0002068884213D0E2496031206888420ED0F7
:1008E000DF4978312068884209D0DD49903120689D
:1008F000884204D0DA49A8312068884206D12068AD
:10090000006820F001002168086005E020680068A8
:1009100020F0010021680860D0492068884249D051
:10092000CE4918312068884244D0CC493031206803
:1009300088423FD0C9494831206888423AD0C749E7
:1009400060312068884235D0C449783120688842B7
:1009500030D0C2499031206888422BD0BF49A8319D
:100960002068884226D0BE492068884222D0BC49EF
:100970001831206888421DD0B9493031206888423A
:1009800018D0B74948312068884213D0B449603143
:10099000206888420ED0B24978312068884209D058
:1009A000AF4990312068884204D0AD49A831206811
:1009B000884201D1012000E0002068B12068006871
:1009C00020F01E00216808602068406920F0800047
:1009D00021684861256806E02068006820F00E0064
:1009E0002168086025689D492068884270D09B492D
:1009F0001831206888426BD098493031206888428D
:100A000066D0964948312068884261D09349603168
:100A1000206888425CD0914978312068884257D05C
:100A20008E4990312068884252D08C49A831206884
:100A300088424DD08A492068884249D08849183177
:100A40002068884244D086493031206888423FD0AF
:100A500083494831206888423AD081496031206812
:100A6000884235D07E4978312068884230D07C4930
:100A70009031206888422BD07949A831206888427B
:100A800026D078492068884222D0764914312068DF
:100A900088421DD0734928312068884218D0714996
:100AA0003C312068884213D06E495031206888421A
:100AB0000ED06C4964312068884209D06949783188
:100AC0002068884204D067498C312068884201D16F
:100AD000012000E0002028B1206E006820F4807022
:100AE000216E086011E002F0C7FDA0EB08000528A8
:100AF0000BD920206065032084F8350000BF00205A
:100B000084F8340000BF01209CE6286800F0010052
:100B10000028E8D151492068884249D04F4918310E
:100B20002068884244D04D493031206888423FD007
:100B30004A494831206888423AD0484960312068A3
:100B4000884235D0454978312068884230D04349C1
:100B50009031206888422BD04049A83120688842D3
:100B600026D03F492068884222D03D49183120686C
:100B700088421DD03A4930312068884218D038491F
:100B800048312068884213D0354960312068884256
:100B90000ED0334978312068884209D030499031ED
:100BA0002068884204D02E49A8312068884201D1AB
:100BB000012000E0002040B1A66D94F85C0000F038
:100BC0001F013F208840B06007E0A76D94F85C00EB
:100BD00000F01F0101208840786020492068884289
:100BE00076D01E4918312068884271D01B493031B7
:100BF000206888426CD0194948312068884267D003
:100C0000164960312068884262D0144978312068E2
:100C100088425DD0114990312068884258D00F49F0
:100C2000A8312068884253D00D49206888424FD0AF
:100C30000B491831206888424AD009493031206870
:100C4000884245D0064948312068884240D004494E
:100C50006031206888423BD0014905E01000024025
:100C600010040240085402587831206888422FD07E
:100C70002549206888422BD02349183120688842B2
:100C800026D022492068884222D020491431206889
:100C900088421DD01D4928312068884218D01B4940
:100CA0003C312068884213D018495031206888426E
:100CB0000ED0164964312068884209D01349783132
:100CC0002068884204D011498C312068884201D1C3
:100CD000012000E0002068B1D4E919104860E06EFE
:100CE00040B1E06E006820F48070E16E0860D4E9E5
:100CF0001C104860012084F8350000BF002084F8F3
:100D0000340000BF00BF9DE5A00402400854025813
:100D100070B504460CB9012070BD94F83500022866
:100D200003D0802060650120F6E7DC492068884216
:100D300049D0DA4918312068884244D0D749303147
:100D4000206888423FD0D5494831206888423AD04F
:100D5000D24960312068884235D0D0497831206846
:100D6000884230D0CD499031206888422BD0CB4981
:100D7000A8312068884226D0C9492068884222D0FC
:100D8000C7491831206888421DD0C54930312068D4
:100D9000884218D0C24948312068884213D0C049DF
:100DA0006031206888420ED0BD4978312068884281
:100DB00009D0BB4990312068884204D0B849A83195
:100DC0002068884201D1012000E00020F0B3042017
:100DD00084F83500B149206888424BD0AF491831BA
:100DE0002068884246D0AD4930312068884241D0E1
:100DF000AA494831206888423CD0A849603120681F
:100E0000884237D0A54978312068884232D0A3493A
:100E10009031206888422DD0A049A83120688842AE
:100E200028D09F492068884224D09D4918312068E5
:100E300088421FD09A493031206888421AD0984998
:100E400048312068884215D0954900E020E06031A3
:100E5000206888420ED0924978312068884209D0B3
:100E60008F4990312068884204D08D49A83120688C
:100E7000884206D12068006820F0010021680860DF
:100E800009E12068006820F001002168086002E1A3
:100E900082492068884249D08049183120688842B8
:100EA00044D07E493031206888423FD07B49483168
:100EB000206888423AD0794960312068884235D02C
:100EC000764978312068884230D074499031206862
:100ED00088422BD07149A8312068884226D07049B9
:100EE0002068884222D06E491831206888421DD07F
:100EF0006B4930312068884218D0694948312068F0
:100F0000884213D066496031206888420ED0644917
:100F100078312068884209D0614990312068884240
:100F200004D05F49A8312068884206D12068006853
:100F300020F001002168086005E02068006820F0CA
:100F40000100216808602068006820F00E00216818
:100F5000086052492068884270D050491831206892
:100F600088426BD04D4930312068884266D04B4969
:100F700048312068884261D0484960312068884201
:100F80005CD0464978312068884257D04349903137
:100F90002068884252D04149A831206888424DD00B
:100FA0003F492068884249D03D491831206888422D
:100FB00044D03B493031206888423FD038494831DD
:100FC000206888423AD0364960312068884235D05E
:100FD000334978312068884230D0314990312068D7
:100FE00088422BD02E49A8312068884226D02D492E
:100FF0002068884222D02B491431206888421DD0B5
:10100000284928312068884218D026493C31206878
:10101000884213D023495031206888420ED021499C
:1010200064312068884209D01E497831206888429E
:1010300004D01C498C312068884201D1012000E095
:101040000020D8B1206E006820F48070216E086006
:10105000A56D94F85C0000F01F01012088406860D5
:10106000D4E919104860E06E40B1E06E006820F4E9
:101070008070E16E0860D4E91C104860012084F89B
:10108000350000BF002084F8340000BF206D10B18F
:101090002046216D884700203EE6000010000240F7
:1010A00010040240085402582DE9F84F044600206D
:1010B0000090FE4800684FF41651B0FBF1FAA66D9F
:1010C000D4F858803768D8F80090F94920688842E9
:1010D00049D0F74918312068884244D0F44930316A
:1010E000206888423FD0F2494831206888423AD08F
:1010F000EF4960312068884235D0ED497831206869
:10110000884230D0EA499031206888422BD0E849A3
:10111000A8312068884226D0E6492068884222D03B
:10112000E4491831206888421DD0E24930312068F6
:10113000884218D0DF4948312068884213D0DD4901
:101140006031206888420ED0DA49783120688842C0
:1011500009D0D84990312068884204D0D549A831B7
:101160002068884201D1012000E0002000287DD0C5
:1011700094F85C0000F01F010820884038400028E7
:1011800068D0CB492068884249D0C94918312068C5
:10119000884244D0C6493031206888423FD0C44993
:1011A0004831206888423AD0C1496031206888427D
:1011B00035D0BF4978312068884230D0BC49903161
:1011C000206888422BD0BA49A8312068884226D0AE
:1011D000B8492068884222D0B64918312068884230
:1011E0001DD0B44930312068884218D0B149483107
:1011F0002068884213D0AF496031206888420ED001
:10120000AC4978312068884209D0AA4990312068D9
:10121000884204D0A749A8312068884204D12068B8
:10122000006800F0040003E02068006800F0080097
:1012300080B12068006820F004002168086094F8FC
:101240005C0000F01F0108208840B060606D40F035
:101250000100606594F85C0000F01F0101208840E7
:101260003840E8B392492068884200E0B7E24BD0AA
:101270008F4918312068884246D08D493031206826
:10128000884241D08A494831206888423CD0884908
:1012900060312068884237D085497831206888429B
:1012A00032D083499031206888422DD08049A831BE
:1012B0002068884228D07F492068884224D07D4910
:1012C0001831206888421FD07A493031206888421E
:1012D0001AD0784948312068884215D0754900E015
:1012E00026E06031206888420ED07249783120684B
:1012F000884209D06F4990312068884204D06D49F6
:10130000A8312068884204D12068406900F080003C
:1013100002E020680068002050B194F85C0000F002
:101320001F0101208840B060606D40F002006065E0
:1013300094F85C0000F01F01042088403840E8B3B6
:101340005B49206888424BD059491831206888424F
:1013500046D0574930312068884241D054494831FD
:10136000206888423CD0524960312068884237D09A
:101370004F4978312068884232D04D4990312068F9
:1013800088422DD04A49A8312068884228D049494E
:101390002068884224D047491831206888421FD0ED
:1013A00044493031206888421AD042494831206887
:1013B000884215D03F496031206800E024E088422F
:1013C0000ED03C4978312068884209D039499031A3
:1013D0002068884204D03749A8312068884204D167
:1013E0002068006800F0020002E020680068002029
:1013F00050B194F85C0000F01F0104208840B060F8
:10140000606D40F00400606594F85C0000F01F011E
:10141000102088403840E8B325492068884251D0E0
:1014200023491831206888424CD021493031206846
:10143000884247D01E4948312068884242D01C4922
:101440006031206888423DD019497831206888424F
:1014500038D0174990312068884233D01449A831D8
:10146000206888422ED01349206888422AD011492A
:1014700018312068884225D00E49303120688842D2
:1014800020D00C494831206888421BD0094960317E
:10149000206800E04DE0884214D006497831206889
:1014A00088420FD003499031206805E010000024E5
:1014B0001000024010040240884203D0FE49206818
:1014C000884204D12068006800F0080003E020682A
:1014D000006800F0040060B394F85C0000F01F01A5
:1014E00010208840B0602068006800F4802080B13F
:1014F0002068006800F4002028B9206CC8B120469C
:10150000216C884715E0A06C98B12046A16C8847F3
:101510000FE02068006800F4807028B92068006837
:1015200020F0080021680860206C10B12046216C72
:10153000884794F85C0000F01F0120208840384064
:1015400000287DD0DD492068884249D0DB49183128
:101550002068884244D0D9493031206888423FD041
:10156000D6494831206888423AD0D4496031206851
:10157000884235D0D14978312068884230D0CF496F
:101580009031206888422BD0CC49A831206888420D
:1015900026D0C949A8392068884221D0C649903947
:1015A000206888421CD0C44978392068884217D006
:1015B000C14960392068884212D0BF494839206843
:1015C00088420DD0BC4930392068884208D0BA49D9
:1015D00018392068884203D0B7492068884204D16E
:1015E0002068006800F0100003E02068006800F048
:1015F000020028B394F85C0000F01F01202088400E
:10160000B06094F8350004282DD12068006820F0DF
:101610001600216808602068406920F08000216879
:101620004861206C08B9A06C28B12068006820F0DF
:1016300008002168086094F85C0000F01F0100E0D9
:101640003FE03F208840B060012084F8350000BFB3
:10165000002084F8340000BF206D10B12046216DB9
:101660008847BDE8F88F2068006800F4802080B1CA
:101670002068006800F4002028B1606C08B32046A0
:10168000616C88471DE0E06BD8B12046E16B88476C
:1016900017E02068006800F4807068B9206800686E
:1016A00020F0100021680860012084F8350000BF98
:1016B000002084F8340000BFE06B10B12046E16BDD
:1016C0008847606D00287AD0606D00F00100E8B3B3
:1016D000042084F835007949206888424BD0774946
:1016E00018312068884246D07449303120688842D9
:1016F00041D072494831206888423CD06F496031FE
:101700002068884237D06D4978312068884232D0CD
:101710006A499031206888422DD06849A8312068F4
:10172000884228D06449A8392068884223D0624979
:101730009039206888421ED05F49783920688842F5
:1017400019D05D4960392068884200E040E012D03D
:1017500059494839206888420DD0574930392068A6
:10176000884208D0544918392068884203D0524929
:101770002068884206D12068006820F001002168B6
:10178000086005E02068006820F00100216808601A
:1017900000BF0098401C0090504500D905E020682B
:1017A000006800F001000028F3D100BF2068006845
:1017B00000F0010020B1032084F8350003E00DE0C3
:1017C000012084F8350000BF002084F8340000BFF9
:1017D000E06C002802D02046E16C8847D9E1384906
:1017E0002068884222D036491431206888421DD0B2
:1017F000334928312068884218D031493C3120686B
:10180000884213D02E495031206888420ED02C498E
:1018100064312068884209D029497831206888429B
:1018200004D027498C312068884201D1012000E092
:1018300000200028D2D02068056894F85C0000F0F1
:101840001F010420884000EA0900D8B305F0040015
:10185000C0B394F85C0000F01F0104208840C8F871
:10186000040005F4004080B105F4803030B1A06C74
:101870000028B3D02046A16C88478AE1206C00285C
:10188000ACD02046216C884783E105F02000E8BBFE
:101890000A492068884253D0084918312068884294
:1018A0004ED0064930312068884249D0034948313A
:1018B0002068884244D006E0B8040240100002408C
:1018C000085402584FE0B44960312068884237D04C
:1018D000B14978312068884232D0AF4990312068D0
:1018E00088422DD0AC49A8312068884228D0AB4925
:1018F0002068884224D0A9491831206888421FD026
:10190000A6493031206888421AD000E025E0A3497A
:1019100048312068884213D0A0496031206888424D
:101920000ED09E4978312068884209D09B49903179
:101930002068884204D09949A8312068884206D19D
:101940002068006820F008002168086005E0206831
:10195000006820F0040021680860206C10B3204665
:10196000216C884715E194F85C0000F01F0102200B
:10197000884000EA0900E8B305F00200D0B394F80B
:101980005C0000F01F0102208840C8F8040005F444
:10199000004070B105F4803028B9606C10B1204669
:1019A000616C8847F5E0E06BF0B32046E16B884757
:1019B000EFE005F02000C0BB7749206888424ED098
:1019C000754918312068884249D073493031206800
:1019D000884244D070494831206888423FD06E49DF
:1019E0006031206888423AD06B497831206888425B
:1019F00035D000E04EE068499031206888422ED012
:101A00006549A8312068884229D064492068884205
:101A100025D0624918312068884220D05F49303192
:101A2000206888421BD001E06EE02DE05B49483120
:101A30002068884213D059496031206888420ED00E
:101A4000564978312068884209D05449903120683D
:101A5000884204D05149A8312068884206D12068C4
:101A6000006820F014002168086005E02068006824
:101A700020F00A0021680860012084F8350000BFCA
:101A8000002084F8340000BFE06BE8B32046E16B2F
:101A900088477EE094F85C0000F01F010820884031
:101AA00000EA090080B305F0080068B33A492068ED
:101AB00088424BD0384918312068884246D0364990
:101AC00030312068884241D033494831206888420B
:101AD0003CD0314960312068884237D02E49783176
:101AE0002068884232D02C499031206888422DD01D
:101AF0002949A8312068884228D02849206888428E
:101B000024D02649183100E043E0206888421DD0E7
:101B1000224930312068884218D020494831206855
:101B2000884213D01D496031206888420ED01B497D
:101B300078312068884209D018499031206888425D
:101B400004D01649A8312068884206D12068006870
:101B500020F01C002168086005E02068006820F083
:101B60000E002168086094F85C0000F01F0101205D
:101B70008840C8F804000120606584F8350000BF83
:101B8000002084F8340000BFE06C10B12046E16C06
:101B9000884700BF65E500001000024010040240C5
:101BA0002DE9F041044601F067FD804614B901209B
:101BB000BDE8F081FE492068884249D0FC491831CF
:101BC0002068884244D0FA493031206888423FD0AA
:101BD000F7494831206888423AD0F5496031206899
:101BE000884235D0F24978312068884230D0F049B7
:101BF0009031206888422BD0ED49A8312068884276
:101C000026D0EC492068884222D0EA491831206861
:101C100088421DD0E74930312068884218D0E54914
:101C200048312068884213D0E249603120688842F8
:101C30000ED0E04978312068884209D0DD499031E2
:101C40002068884204D0DB49A8312068884201D14D
:101C5000012000E00020002873D0606A00B100BFBE
:101C6000022084F8350000BF002084F8340000BF53
:101C7000CF492068884249D0CD4918312068884230
:101C800044D0CB493031206888423FD0C8494831E0
:101C9000206888423AD0C64960312068884235D0F1
:101CA000C34978312068884230D0C14990312068DA
:101CB00088422BD0BE49A8312068884226D0BD4931
:101CC0002068884222D0BB491831206888421DD044
:101CD000B84930312068884218D0B6494831206868
:101CE000884213D0B3496031206888420ED0B14990
:101CF00078312068884209D0AE4990312068884206
:101D000004D0AC49A8312068884206D12068006818
:101D100020F001002168086005E02068006820F0DC
:101D20000100216808600DE001F0A6FCA0EB0800AE
:101D3000052807D920206065032084F8350001209C
:101D400036E769E02068006800F001000028EBD168
:101D50002068056898480540D4E9020108432169D4
:101D6000084361690843A1690843E1690843216A9E
:101D700008430543606A042803D1D4E90B010843F2
:101D800005436068292802D360682E2817D9606847
:101D90003F2802D36068422811D96068472802D3DF
:101DA000606848280BD960684F2802D360685228C1
:101DB00005D96068742804D36068772801D80120A9
:101DC00000E0002008B145F4801520680560206817
:101DD000456925F00705606A0543606A04280DD14E
:101DE000A06A0543E06A48B1204609F085FF28B1A2
:101DF00040206065012084F83500D9E620684561FF
:101E0000204609F0D1FF064694F85C0000F01F015F
:101E10003F208840B0609EE068492068884222D018
:101E200066491431206888421DD0644928312068F1
:101E3000884218D061493C312068884213D05F49FC
:101E40005031206888420ED05C4964312068884255
:101E500009D05A4978312068884204D057498C31DA
:101E60002068884201D1012000E00020E0B35349FE
:101E70002068884222D051491431206888421DD000
:101E80004E4928312068884218D04C493C3120689E
:101E9000884213D049495031206888420ED04749C2
:101EA00064312068884209D04449783120688842EA
:101EB00004D042498C312068884201D1012000E0E1
:101EC000002000B100BF022084F8350000BF0020D0
:101ED00084F8340000BF2068056839480540A068D0
:101EE000402802D1102106E02EE0A068802801D110
:101EF000C10100E00021E06841EAD001206941EA27
:101F0000D001606941EAD001A06941EAD001E069ED
:101F100041EAD001206A41EA1010054320680560BB
:101F200026492068401A1421B0FBF1F08000E065DA
:101F3000204609F039FF074694F85C0000F01F01C5
:101F400001208840786006E040206065032084F826
:101F5000350001202CE61649206888427AD01449C1
:101F600018312068884275D0114930312068884284
:101F700070D00F494831206888426BD00C496031DD
:101F80002068884266D00A4978312068884261D04A
:101F900007499031206888425CD00549A831206803
:101FA000884257D003492068884253D0014909E04C
:101FB00010000240100402403F8010FE08540258F6
:101FC0000F00FEFF18312068884243D0374920684F
:101FD00088423FD035491831206888423AD0334989
:101FE00030312068884235D03049483120688842F5
:101FF00030D02E496031206888422BD02B4978316F
:102000002068884226D02A492068884222D0284960
:102010001431206888421DD0254928312068884223
:1020200018D023493C312068884213D020495031D0
:10203000206888420ED01E4964312068884209D049
:102040001B4978312068884204D019498C312068B6
:10205000884201D1012000E0002000B3204609F0B1
:1020600019FFA068802801D1002060602079216ECE
:102070000860D4E919104860606860B16068082899
:1020800009D8204609F068FF0020E16E0860D4E915
:102090001C10486003E00020E066206760670020B5
:1020A0006065012084F83500002081E5400402408D
:1020B000085402582DE9F04104460D4616461F46C5
:1020C0004FF0000814B90120BDE8F08100BF94F87A
:1020D0003400012801D10220F6E7012084F8340001
:1020E00000BF94F8350001287ED1022084F8350025
:1020F00000206065E4492068884249D0E2491831EF
:102100002068884244D0E0493031206888423FD07E
:10211000DD494831206888423AD0DB496031206887
:10212000884235D0D84978312068884230D0D649A5
:102130009031206888422BD0D349A831206888424A
:1021400026D0D2492068884222D0D0491831206850
:1021500088421DD0CD4930312068884218D0CB4903
:1021600048312068884213D0C849603120688842CD
:102170000ED0C64978312068884209D0C3499031D1
:102180002068884204D0C149A8312068884206D11D
:102190002068006820F001002168086005E02068E0
:1021A000006820F00100216808603B46324629465D
:1021B000204609F067FCB449206888424BD0B249F8
:1021C00018312068884246D0AF49303120688842B3
:1021D00041D0AD494831206888423CD0AA4960319D
:1021E0002068884237D000E042E1A7497831206872
:1021F000884230D0A4499031206888422BD0A2492F
:10220000A8312068884226D0A0492068884222D080
:102210009E491831206888421DD09C493031206881
:10222000884218D0994948312068884213D097498C
:102230006031206888420ED0944978312068884205
:1022400009D0924990312068884204D08F49A83142
:102250002068884201D1012000E0002080B1206880
:10226000006820F01E0040F0160021680860206C15
:10227000B0B12068006840F00800216808600FE0F5
:102280002068006820F00E0040F00A002168086015
:10229000206C28B12068006840F0040021680860C4
:1022A00079492068884270D077491831206888427F
:1022B0006BD0754930312068884266D07249483108
:1022C0002068884261D070496031206888425CD0C3
:1022D0006D4978312068884257D06B499031206829
:1022E000884252D06849A831206888424DD0674959
:1022F0002068884249D0654918312068884244D016
:1023000062493031206888423FD0604948312068B6
:1023100088423AD05D4960312068884235D05B49B7
:1023200078312068884230D05849903120688842FE
:102330002BD05649A8312068884226D054492068BD
:10234000884222D052491431206888421DD0504919
:1023500028312068884218D04D493C312068884295
:1023600013D04B495031206888420ED0484964311F
:102370002068884209D0464978312068884204D0D4
:1023800043498C312068884201D1012000E00020BF
:1023900090B1206E006800F4803028B1206E006893
:1023A00040F48070216E0860E06E28B1E06E006835
:1023B00040F48070E16E086033492068884249D05B
:1023C000314918312068884244D02F493031206883
:1023D00088423FD02C494831206888423AD02A4967
:1023E00060312068884235D027497831206888429A
:1023F00030D025499031206888422BD02249A8311D
:102400002068884226D021492068884222D01F496E
:102410001831206888421DD01C493031206888421C
:1024200018D01A4948312068884213D017496031C2
:10243000206888420ED0154978312068884209D03A
:10244000124990312068884204D01049A831206890
:10245000884206D12068006840F0010021680860C9
:1024600010E02068006840F001002168086009E081
:102470004FF40060606500BF002084F8340000BFA6
:102480004FF0010840461FE61000024010040240D1
:102490000854025870B5044601F0EEF80646254689
:1024A000681C10B104480078054400BF01F0E4F84E
:1024B000801BA842FAD370BD0C00002430B503463F
:1024C00093F89840012C01D0022C3ED11868806D01
:1024D000084030B91868C06D40F001001D68E8651B
:1024E0000EE01868806D0840884206D11868C06DFB
:1024F00040F002001D68E86502E003201D68E86501
:1025000001F4007030B11868D0F8E00010431D6885
:10251000C5F8E00001F4806030B11868D0F8E4003C
:1025200010431D68C5F8E40000BF1868406D0B4DEE
:102530000D4028431D6868650948006840EA9170AD
:10254000074D286000BF002030BDD3F89C0040F04C
:102550000200C3F89C000120F6E70000FFFFCF3F18
:1025600014A800402DE9F04104460E461746706855
:1025700000B900E000BF94F89800022832D120682A
:10258000D0F8C00000F07C5040B9D4F89C0040F076
:102590002000C4F89C000120BDE8F0812068D0F83C
:1025A000C40000F4001038B1D4F89C0040F400706E
:1025B000C4F89C000120EFE72068D0F8C400C0F305
:1025C00004452B463A46314620460AF09BF9012045
:1025D000A8402168C1F8D0000120A840C4F89400A8
:1025E0000020D9E7D4F89C0040F00800C4F89C0013
:1025F0000120D1E77047F0B5024692F89860012EAD
:1026000001D0022E43D1C868072800D100BF086856
:1026100018BBC868072800D000BFC86807280BD1BE
:10262000088A4FF0605747EA0040CF6940EA072028
:102630008F6940EA07030AE0087A80070F7B40EAC7
:10264000C7600F8A40EA07404F6940EA0703D76E28
:10265000486807EB8004236017E0C868072800D0AB
:1026600000BF0F7B086940EA4773C868072801D19B
:102670008D6903E00F7A486940EA8775176F4868EB
:1026800007EBC0042360241D25600020F0BDD2F8B4
:102690009C0040F00200C2F89C000120F6E770B5F3
:1026A0000446049D94F8980001280AD1080140EAE4
:1026B000820040EA430028432668C6F880000020D4
:1026C00070BDD4F89C0040F00400C4F89C000120C8
:1026D000F6E77047704700002DE9F04304460D46C9
:1026E0009C46002394F89880B8F1020F7ED1402DCB
:1026F0003FD12068D0F8A00000F4FE0040B9D4F823
:102700009C0040F02000C4F89C000120BDE8F0834C
:102710002068D0F8A40000F07F0038B9D4F89C00FD
:1027200040F48070C4F89C000120EFE72068D0F8E6
:10273000A400C0F305232068D0F8A400C0F3006013
:1027400080B12068D0F8A0004FF00109B9EBD07F2C
:1027500008D12068D0F8A000C0F3064003F10109B9
:1027600000EA0903606C5843D4F8749009EB8001C7
:1027700053E0412D40D12068D0F8B00000F4FE00B5
:1027800038B9D4F89C0040F02000C4F89C00012027
:10279000BCE72068D0F8B40000F07F0038B9D4F866
:1027A0009C0040F48070C4F89C000120AEE72068D3
:1027B000D0F8B400C0F305232068D0F8B400C0F30B
:1027C000006080B12068D0F8B0004FF00109B9EB8B
:1027D000D07F08D12068D0F8B000C0F3064003F1E4
:1027E000010900EA0903E06C584300E072E0D4F804
:1027F000789009EB800110E0206DA84207D8D4F84A
:102800009C0040F02000C4F89C0001207EE7606D31
:102810006843D4F87C9009EB8001086800F08040A0
:102820005060506820B90868C0F38A40106003E027
:10283000086820F060401060086800F00050906068
:10284000086800F000401061091D088880B2D0615E
:102850000868C0F30340D060086800F4801050613D
:10286000086800F4001090610868C0F30660106208
:102870000868C00F5062091D0F46002603E0B85DCE
:102880000CF80600761CDFF85C90D06819F80000A0
:10289000B042F4D8402D03D12068C0F8A83017E02A
:1028A000412D03D12068C0F8B83011E0202D06D2A8
:1028B0000120A840D4F80090C9F8980008E005F07D
:1028C0001F09012000FA09F0D4F80090C9F89C0013
:1028D00000201BE7D4F89C0040F00800C4F89C00DE
:1028E000012013E7A4D70008704700002DE9F04F3E
:1028F0008DB00446EF4800688707EE48001D006869
:1029000007EA80772068006D00F470482068406D09
:1029100000EA08082068006D00F00F092068406D8B
:1029200000EA09092068006D00F0F00A2068406D97
:1029300000EA0A0A2068006D00F0715B2068406DB3
:1029400000EA0B0B2068006D00F060700C902068AE
:10295000406D0C9908400C902068456D2068066D0C
:10296000C5F3002070B1C6F3002058B100BF4FF48A
:102970008070216808650020CE49086000BF2046AD
:10298000FFF7B2FFC5F38020C8B1C6F38020B0B115
:102990002068D0F8DC000A902068D0F8E4000A999A
:1029A00008400A9000BF4FF480602168086500204D
:1029B000C049086000BF20460A9900F0B5FC67B125
:1029C00000BFBD48384021680865B80FB9490860A4
:1029D00000BF39462046FFF70DFEB8F1000F0ED0BC
:1029E00000BFB54808EA0000216808654FEA987002
:1029F000B049086000BF4146204600F097FCB9F19D
:102A0000000F0ED000BFAC4809EA0000216808653D
:102A10004FEA9970A749086000BF4946204600F078
:102A2000C7FBBAF1000F0ED000BFA3480AEA0000AE
:102A3000216808654FEA9A709E49086000BF5146B8
:102A4000204600F003FCC5F3C02070B1C6F3C020DF
:102A500058B100BF4FF40060216808650020954917
:102A6000086000BF204600F062FCC5F34020C8B1FA
:102A7000C6F34020B0B12068D0F8D8000B90206891
:102A8000D0F8E0000B9908400B9000BF4FF40070A5
:102A90002168086500208749086000BF20460B991F
:102AA00000F043FCC5F3C04070B1C6F3C04058B15C
:102AB00000BF4FF400202168086500207D490860B0
:102AC00000BF204600F072FBC5F3004070B1C6F3B2
:102AD000004058B100BF4FF48030216808650020E5
:102AE0007449086000BF204600F01DFCC5F380401B
:102AF00070B1C6F3804058B100BF4FF48020216808
:102B0000086500206B49086000BF204600F00AFC01
:102B1000C5F3404088B1C6F3404070B100BF4FF4E8
:102B200000302168086500206249086000BFD4F8C1
:102B30009C0040F08000C4F89C000C9870B100BF6D
:102B40005D490C980840216808650C98800F594928
:102B5000086000BF20460C99FFF7BCFDBBF1000FD9
:102B600010D000BF54480BEA0000216808654FEA06
:102B70009B705049086000BFD4F89C0040EA0B00ED
:102B8000C4F89C004D49206888427DD16068806807
:102B900000F00300002877D06068006A00F00F00A2
:102BA00009906068406A0999084009906068006A65
:102BB00000F0300008906068406A0899084008906A
:102BC0006068006A00F4C07007906068406A079906
:102BD000084007906068006A00F4FC400690606856
:102BE000406A0699084006906068006A00F4F02088
:102BF00005906068406A0599084005906068406AE1
:102C000002906068006A0190099830B10998616883
:102C100008622046099900F082FB089830B10898B4
:102C2000616808622046089900F07BFB0298C0F3B7
:102C30008010A0B10198C0F3801080B16068C06BB3
:102C4000000C04906068C06B00F03F0003904020CF
:102C5000616808622046DDE9032100F061FB079806
:102C600030B10798616808622046079900F056FB6A
:102C7000069840B1069861680862D4F89C000699ED
:102C80000843C4F89C0000E00AE0059840B10598AC
:102C900061680862D4F89C0005990843C4F89C0058
:102CA000D4F89C0010B12046FFF713FD0DB0BDE82D
:102CB000F08F000010A80040FFFFCF3F00A00040B1
:102CC00070B594B004464C22B34901A8FDF75FFCEF
:102CD00014B9012014B070BDB0492068884203D1F6
:102CE000206800F580706060A068B0F5407F00D17A
:102CF00000BF206C00B100BFA06C00B100BF206D10
:102D000000B100BF206E00B100BFD4E91710084425
:102D100000B100BF94F8980028B9002084F8990009
:102D2000204600F03DF92068806920F010002168FD
:102D3000886100F0A1FC05460EE000F09DFC401B00
:102D40000A2809D99834606840F0010060600320C7
:102D500004F898090120BDE72068806900F00800A8
:102D60000828EAD02068806940F001002168886165
:102D700000F082FC05460EE000F07EFC401B0A28B5
:102D800009D99834606840F001006060032004F8BD
:102D9000980901209EE72068806900F00100002862
:102DA000EAD02068806940F0020021688861207CB8
:102DB000012806D12068806920F0400021688861E0
:102DC00005E02068806940F0400021688861607CEF
:102DD000012806D12068806940F48040216888611C
:102DE00005E02068806920F4804021688861A07C2B
:102DF000012806D12068806920F48050216888610C
:102E000005E02068806940F480502168886120686E
:102E1000806920F44070A1680843216888612068B7
:102E2000806920F0A400216888612068006920F092
:102E3000100021680861E068012806D120688069D7
:102E400040F004002168886120E0E068F0B1E068AB
:102E5000022815D02068806940F0800021688861D0
:102E60002068006940F0100021680861E0680328CC
:102E70000CD12068806940F020002168886105E05D
:102E80002068806940F0200021688861207E401E13
:102E90004106E069401E41EA0020216A491E0843BC
:102EA000A18A491E40EA01402168C861A068B0F5C6
:102EB000407F0FD1A06A401EE16A491E40EA01210D
:102EC000206B401E41EA0011A08C401E41EA0040E8
:102ED0002168C860206E38B12068D0F8C000616EEB
:102EE00008432168C1F8C000D4E91710084460B154
:102EF0002068D0F8C80020F0070001AAA16E52F89F
:102F0000211008432168C1F8C800206C60B1206816
:102F1000D0F8BC0020F0070001AA616C52F8211023
:102F200008432168C1F8BC00A06C68B12068D0F8E3
:102F3000BC0020F0700101AAE06C52F8200041EAC8
:102F400000102168C1F8BC00206D68B12068D0F87D
:102F5000BC0020F4E06101AA606D52F8200041EA53
:102F600000202168C1F8BC000C492068884205D1C6
:102F70006068806820F0030061688860002044F881
:102F8000940FA06001202071943C204609F022FD9E
:102F9000064630469EE60000B4D7000800A0004078
:102FA00010B5B6B00446142130A8FDF744FBB82193
:102FB00002A8FDF740FB76492068884249D14FF4CA
:102FC00000410020CDE9021048031D9002A800F046
:102FD000ABFE08B1FDF713FC6E480068401C6D495C
:102FE00008600846006801280DD100BF6A480068E3
:102FF00040F48070684908600846006800F48070FA
:10300000019000BF00BF00BF63480C38006840F06B
:10301000080061490C3908600846006800F00800A3
:10302000019000BF00BF03203090022031900020AB
:10303000329033900920349030A9584800F010FAAB
:1030400000221146132000F0ABFB132000F094FB8C
:103050009BE053492068884249D14FF40041002049
:10306000CDE9021048031D9002A800F05DFE08B1F2
:10307000FDF7C5FB47480068401C46490860084604
:10308000006801280DD100BF4348006840F48070FB
:10309000414908600846006800F48070019000BF54
:1030A00000BF00BF3C480C38006840F002003A49BD
:1030B0000C3908600846006800F00200019000BF6B
:1030C00000BF602030900220319000203290339079
:1030D0000920349030A9334800F0C2F9002211468B
:1030E000142000F05DFB142000F046FB4DE02E495B
:1030F0002068884249D14FF400410020CDE90210F8
:1031000048031D9002A800F00FFE08B1FDF777FB01
:1031100020480068401C1F490860084600680128D4
:103120000DD100BF1C48006840F480701A49086047
:103130000846006800F48070019000BF00BF00BF27
:1031400015480C38006840F0080013490C39086035
:103150000846006800F00800019000BF00BF4FF46F
:103160004050309002203190002032903390052062
:10317000349030A9094800F073F9002211469F20CD
:1031800000F00EFB9F2000F0F7FA36B010BD0000F3
:1031900000A0004000000024EC440258000C02583B
:1031A00000A400400004025800D400407047000012
:1031B00070B504460D461F492068884210D11E4B49
:1031C000A3F1280240212046FFF786FA1A482C383E
:1031D000406B70B318482C38416B001D884728E0BD
:1031E00016492068884210D1154BA3F128024021CE
:1031F0002046FFF771FA12482C38406BC8B11048CE
:103200002C38416B001D884713E00E492068884226
:103210000FD10D4BA3F1280240212046FFF75CFAA5
:1032200009482C38406B20B107482C38416B001DF1
:10323000884770BD00A00040640D002400A4004039
:103240009C0D002400D40040D40D002470B5044629
:103250000D461F492068884210D11E4BA3F1280259
:1032600041212046FFF738FA1A482C38406B70B3DA
:1032700018482C38416B001D884728E01649206803
:10328000884210D1154BA3F1280241212046FFF7B7
:1032900023FA12482C38406BC8B110482C38416BC7
:1032A000001D884713E00E49206888420FD10D4B5E
:1032B000A3F1280241212046FFF70EFA09482C38D5
:1032C000406B20B107482C38416B001D884770BD0A
:1032D00000A00040640D002400A400409C0D0024C8
:1032E00000D40040D40D0024014691F89800012834
:1032F0000CD1022081F898000868806920F0010054
:103300000A6890610020C1F89C007047D1F89C00C9
:1033100040F00400C1F89C000120F6E770477047B8
:1033200070477047704770477047704770477047E5
:1033300010B50446012C03D132494868804760E04B
:10334000022C03D13049486880475AE0042C03D14D
:103350002E494868804754E0082C03D12C4948681E
:1033600080474EE0102C03D12A494868804748E046
:10337000202C03D128494868804742E0402C03D1E3
:103380002649486880473CE0802C03D1244948689E
:10339000804736E0B4F5807F03D1224948688047F2
:1033A0002FE0B4F5007F03D11F494868804728E02B
:1033B000B4F5806F03D11D494868804721E0B4F51A
:1033C000006F03D11A49486880471AE0B4F5805F5E
:1033D00003D118494868804713E0B4F5005F03D172
:1033E0001549486880470CE0B4F5804F03D1134974
:1033F0004868804705E0B4F5004F02D1104948689D
:10340000804710BD18010024200100242801002459
:103410003001002438010024400100244801002428
:103420005001002458010024600100246801002498
:103430007001002478010024800100248801002408
:103440009001002410B5044604480068204020B1D3
:10345000024804602046FFF76BFF10BD880000584B
:10346000F8B502460023714DDAE001279F400E684F
:1034700006EA0704002C7AD00E7906F00306012E26
:1034800004D00E7906F00306022E13D190685F0077
:103490000326BE40B0435F00CE68BE40304390601C
:1034A000506801269E40B0430E79C6F300169E4038
:1034B000304350600E7906F00306032E07D10E79D3
:1034C00006F00306032E0CD18E68012E09D0D068B9
:1034D0005F000326BE40B0435F008E68BE403043AD
:1034E000D0600E7906F00306022E13D1DF0802F138
:1034F000200656F827005E07F70E0F26BE40B043A1
:103500005F07FF0E0E69BE403043DF0802F1200660
:1035100046F8270010685F000326BE40B0430E79CE
:1035200006F003065F00BE40304310604E6806F4AC
:103530004036002E73D000BF3D4E366846F002067E
:103540003B4F3E603E46366806F00206009600BFDE
:1035500000BF384E9F0856F827009E07370F0F26EA
:10356000BE40B043344EB24202D1002629E056E0BC
:10357000324EB24201D1012623E0314EB24201D196
:1035800002261EE02F4EB24201D1032619E02E4E34
:10359000B24201D1042614E02C4EB24201D10526DC
:1035A0000FE02B4EB24201D106260AE0294EB2426C
:1035B00001D1072605E0284EB24201D1092600E0DC
:1035C0000A269F073F0FBE4030431A4E9F0846F819
:1035D00027004FF0B0463068A0434E6806F48016CE
:1035E00006B120434FF0B04630607068A0434E688B
:1035F00006F4001606B120434FF0B04670606868CC
:10360000A0434E6806F4003606B12043686028687F
:10361000A0434E6806F4803606B1204328605B1C48
:103620000E68DE40002E7FF420AFF8BD8000005809
:10363000F4440258080400580000025800040258DC
:1036400000080258000C02580010025800140258DA
:1036500000180258001C0258002402580246136940
:103660000B400BB1012000E0002070470AB18161DE
:1036700001E00B0483617047014800687047000057
:1036800004000024034800680349097808440149FC
:1036900008607047040000240C00002410B50320CB
:1036A00000F0BCF801F07EFB10490968C1F303216A
:1036B0000F4A515C01F01F0120FA01F40B48006829
:1036C00000F00F001146085C00F01F0024FA00F023
:1036D00008490860084804600F2000F00FF808B19E
:1036E000012010BD00F036F80020FAE71844025817
:1036F00028D80008140000241000002470B50446E7
:103700001148007808B9012070BD0F4800784FF4C7
:103710007A71B1FBF0F00D490968B1FBF0F528466C
:1037200002F00EF808B10120EEE7102C07D20022BB
:103730002146501E00F034F80548046001E00120E5
:10374000E2E70020E0E700000C0000241000002465
:103750000800002408B500BF0648006840F00200D9
:10376000044908600846006800F00200009000BFAD
:1037700000BF08BDF44402580146084600280DDB8E
:1037800000BF00BF00F01F0301229A4043099B00C5
:1037900003F1E023C3F8002100BF00BF00BF704762
:1037A0002DE9F05F80460D46164609F037FA0746C8
:1037B00039462A46334601F00700C0F1070ABAF13C
:1037C000040F02D94FF0040A01E0C0F1070AD14604
:1037D00000F1040ABAF1070F02D24FF0000A01E02B
:1037E000A0F1030AD4464FF0010A0AFA09FAAAF135
:1037F000010A0AEA020A0AFA0CFA4FF0010B0BFA64
:103800000CFBABF1010B0BEA030B4AEA0B0421465C
:10381000404609F0EFF9BDE8F09F000000BF00F05E
:103820000702064B19684FF6FF031940044B0B4380
:1038300043EA0221014B196000BF70470CED00E024
:103840000000FA0570B5044615480068C0F3800012
:1038500048B91348006800F00700A04201D00120D9
:1038600070BD0020FCE70E48006820F007002043F0
:103870000B490860FFF700FF054607E0FFF7FCFE75
:10388000401BB0F57A7F01D90120E9E704480838E8
:103890000068C0F340300028F0D00020E0E70000CE
:1038A0000C48025810B501F033FA05490968C1F314
:1038B0000211044A515C01F01F01C84010BD000014
:1038C0002044025828D8000870B50146844D2D6860
:1038D00005F00303824D2D68C5F30530804D2D1D85
:1038E0002D68C5F300147E4D14352D68C5F3CC0545
:1038F00015FB04F501EE105AB8EE411AF0EE410A3C
:1039000000286FD023B1012B4ED0022B6BD16BE07E
:10391000734D283D2D68C5F340153DB3704D283DCE
:103920002D68C5F3C1066F4D25FA06F201EE102A87
:10393000F8EE411A01EE100AB8EE411A81EE812A22
:103940009FED691AC0EE811A654D10352D68C5F3DB
:10395000080501EE105AB8EE411A31EE811AF7EE61
:10396000001A31EE211A22EE010A1CE001EE100AC3
:10397000B8EE411ADFED5D1A81EE812A9FED5A1AE9
:10398000C0EE811A564D10352D68C5F3080501EEBD
:10399000105AB8EE411A31EE811AF7EE001A31EEE4
:1039A000211A22EE010A5BE001EE100AB8EE411A7C
:1039B000DFED4F1A81EE812A9FED4B1AC0EE811A7E
:1039C000474D10352D68C5F3080501EE105AB8EEC5
:1039D000411A31EE811AF7EE001A31EE211A22EE69
:1039E000010A3DE077E01DE001EE100AB8EE411A51
:1039F0009FED402AC2EE011A9FED3B1A80EE812A0C
:103A0000374D10352D68C5F3080501EE105AB8EE94
:103A1000411A32EE011AB7EE002A31EE021A21EEF7
:103A2000810A1DE001EE100AB8EE411ADFED301AEE
:103A300081EE812A9FED2C1AC0EE811A284D103597
:103A40002D68C5F3080501EE105AB8EE411A31EEA3
:103A5000811AF7EE001A31EE211A22EE010A00BF98
:103A600000BF1F4D10352D68C5F3462501EE105AD5
:103A7000B8EE411AF7EE001A31EE211AC0EE011A23
:103A8000BCEEE11A81ED001A154D10352D68C5F315
:103A9000064501EE105AB8EE411AF7EE001A31EE63
:103AA000211AC0EE011ABCEEE11A81ED011A0C4D8B
:103AB00010352D68C5F3066501EE105AB8EE411AAF
:103AC000F7EE001A31EE211AC0EE011ABCEEE11A2F
:103AD00081ED021A03E000250D604D608D6070BD20
:103AE000284402580090D003000000460024744C83
:103AF0000024744A001BB74B70B50146844D2D68F5
:103B000005F00303824D2D68C5F30550804D2D1D32
:103B10002D68C5F300247E4D1C352D68C5F3CC05FA
:103B200015FB04F501EE105AB8EE411AF0EE410A09
:103B300000286FD023B1012B4ED0022B6BD16BE04C
:103B4000734D283D2D68C5F340153DB3704D283D9C
:103B50002D68C5F3C1066F4D25FA06F201EE102A55
:103B6000F8EE411A01EE100AB8EE411A81EE812AF0
:103B70009FED691AC0EE811A654D18352D68C5F3A1
:103B8000080501EE105AB8EE411A31EE811AF7EE2F
:103B9000001A31EE211A22EE010A1CE001EE100A91
:103BA000B8EE411ADFED5D1A81EE812A9FED5A1AB7
:103BB000C0EE811A564D18352D68C5F3080501EE83
:103BC000105AB8EE411A31EE811AF7EE001A31EEB2
:103BD000211A22EE010A5BE001EE100AB8EE411A4A
:103BE000DFED4F1A81EE812A9FED4B1AC0EE811A4C
:103BF000474D18352D68C5F3080501EE105AB8EE8B
:103C0000411A31EE811AF7EE001A31EE211A22EE36
:103C1000010A3DE077E01DE001EE100AB8EE411A1E
:103C20009FED402AC2EE011A9FED3B1A80EE812AD9
:103C3000374D18352D68C5F3080501EE105AB8EE5A
:103C4000411A32EE011AB7EE002A31EE021A21EEC5
:103C5000810A1DE001EE100AB8EE411ADFED301ABC
:103C600081EE812A9FED2C1AC0EE811A284D18355D
:103C70002D68C5F3080501EE105AB8EE411A31EE71
:103C8000811AF7EE001A31EE211A22EE010A00BF66
:103C900000BF1F4D18352D68C5F3462501EE105A9B
:103CA000B8EE411AF7EE001A31EE211AC0EE011AF1
:103CB000BCEEE11A81ED001A154D18352D68C5F3DB
:103CC000064501EE105AB8EE411AF7EE001A31EE31
:103CD000211AC0EE011ABCEEE11A81ED011A0C4D59
:103CE00018352D68C5F3066501EE105AB8EE411A75
:103CF000F7EE001A31EE211AC0EE011ABCEEE11AFD
:103D000081ED021A03E000250D604D608D6070BDED
:103D1000284402580090D003000000460024744C50
:103D20000024744A001BB74B2DE9F04104460025DE
:103D3000A8464FF00062D4E900101140002013465D
:103D400059404040014331D1606E48B1B0F5801F09
:103D50000DD0B0F5001F11D0B0F5401F16D114E002
:103D6000FE48006840F40030FC49086010E0022181
:103D700004F1080008F05AFF054609E0022104F1A9
:103D8000280009F005F8054602E001E0012500BF22
:103D900000BF55B9F1482430006820F44010616E2E
:103DA0000843EE492431086000E0A8464FF48072D1
:103DB000D4E900101140002013465940404001430F
:103DC0002ED1A06D05281BD2DFE800F0030A1118E0
:103DD0001900E248006840F40030E049086011E052
:103DE000002104F1080008F021FF05460AE0002147
:103DF00004F1280008F0CCFF054603E002E001E0F2
:103E0000012500BF00BF55B9D4482430006820F018
:103E10000700A16D0843D1492431086000E0A8469D
:103E20004FF48062D4E9001011400020134659403D
:103E3000404001433DD1D4F8A400B0F5C00F24D0D8
:103E400007DC68B1B0F5001F11D0B0F5800F1FD1AD
:103E500014E0B0F5000F19D0B0F5200F18D116E01E
:103E6000BE48006840F40030BC49086012E0002100
:103E700004F1080008F0DAFE05460BE0002104F129
:103E8000280008F085FF054604E003E002E001E0B9
:103E9000012500BF00BF5DB9B0482C30006820F498
:103EA0006000D4F8A4100843AC492C31086000E04D
:103EB000A8464FF40062D4E90001104000211346E7
:103EC0005840494008433DD1D4F8A800B0F1407FA4
:103ED00024D007DC68B1B0F1807F11D0B0F1007F51
:103EE0001FD114E0B0F1806F19D0B0F1A06F18D1DC
:103EF00016E09A48006840F400309849086012E0E3
:103F0000002104F1080008F091FE05460BE00021B5
:103F100004F1280008F03CFF054604E003E002E05D
:103F200001E0012500BF00BF5DB98C482C3000685E
:103F300020F0E060D4F8A810084388492C310860CC
:103F400000E0A8464FF00073D4E9001019400020AB
:103F500059404040014328D1E06CA8B1102804D05A
:103F6000202809D0302810D10DE07C48006840F4AA
:103F700000307A4908600AE0022104F1080008F0E4
:103F800055FE054603E002E001E0012500BF00BF49
:103F900055B972482030006820F03000E16C0843C9
:103FA0006E492031086000E0A8464FF48053D4E900
:103FB00000101940002059404040014337D1E06DC6
:103FC000B0F5005F1AD004DC50B1B0F5805F1ED1AF
:103FD0000DE0B0F5405F18D0B0F5804F17D115E077
:103FE0005E48006840F400305C49086011E0002140
:103FF00004F1080008F01AFE05460AE0002104F169
:10400000280008F0C5FE054603E002E001E00125B6
:1040100000BF00BF55B951482430006820F4E0408B
:10402000E16D08434D492431086000E0A8464FF493
:104030000053D4E90010194000205940404001438A
:1040400035D1206EB0F5403F1ED007DC68B1B0F529
:10405000803F0BD0B0F5003F19D10EE0B0F5802FB6
:1040600013D0B0F5A02F12D110E012E0012104F11D
:10407000080008F0DBFD05460BE0012104F12800F3
:1040800008F086FE054604E003E002E001E00125B9
:1040900000BF00BF55B931482430006820F4E0204B
:1040A000216E08432D492431086000E0A8464FF4F2
:1040B0008042D4E900011040002113465840494095
:1040C000084337D1D4F8AC00B0F1405F1ED007DC14
:1040D00068B1B0F1805F0BD0B0F1005F19D10EE094
:1040E000B0F1804F13D0B0F1A04F12D110E012E028
:1040F000012104F1080008F099FD05460BE00121BB
:1041000004F1280008F044FE054604E003E002E064
:1041100001E0012500BF00BF5DB910482C300068E8
:1041200020F0E040D4F8AC1008430C492C31086072
:1041300000E0A8464FF40043D4E9000118400021F4
:104140005840494008432AD1E06EB8B1B0F1805FD1
:1041500006D0B0F1005F12D109E000002C440258F3
:10416000F948006840F40030F749086009E001218F
:1041700004F1080008F05AFD054602E001E00125BF
:1041800000BF00BF55B9F0482430006820F040500F
:10419000E16E0843EC492431086000E0A8464FF086
:1041A0008073D4E900101940002059404040014379
:1041B00028D1A06CA8B1012804D0022809D0032876
:1041C00010D10DE0E048006840F40030DE4908609E
:1041D0000AE0022104F1080008F028FD054603E08A
:1041E00002E001E0012500BF00BF55B9D6482030EC
:1041F000006820F00300A16C0843D3492031086017
:1042000000E0A8464FF48003D4E9001019400020D4
:104210005940404001437DD1CC48006840F4807053
:10422000CA490860FFF728FA064606E0FFF724FAB5
:10423000801B642801D9032505E0C448006800F408
:1042400080700028F2D000BF85BBBF4844300068B2
:1042500000F44070B4F8B01001F44071884213D0FB
:10426000B9484430006820F44077B74844300068CB
:1042700040F48030B449443108600846006820F4B6
:104280008030086008460760D4F8B000B0F5807F41
:1042900015D1FFF7F1F9064609E0FFF7EDF9801BAC
:1042A00041F28831884202D9032507E038E0A64868
:1042B00044300068C0F340000028EED000BF55BB7A
:1042C00000BFB4F8B00000F44070B0F5407F0ED1EC
:1042D0009D481C38006820F47C519D4AD4F8B000F9
:1042E000104041EA101098491C39086007E09648D0
:1042F0001C38006820F47C5093491C3908609248AF
:1043000044300068B4F8B010C1F30B0108438E4983
:10431000443101E005E001E0086002E0A84600E069
:10432000A8460122D4E9000110400021134658405C
:104330004940084330D1A06F18281AD005DC48B195
:10434000082808D0102817D10CE0202812D02828DF
:1043500012D110E012E0012104F1080008F066FC1F
:1043600005460BE0012104F1280008F011FD054687
:1043700004E003E002E001E0012500BF00BF55B901
:1043800071482830006820F03800A16F08436E495A
:104390002831086000E0A8460223D4E90010194043
:1043A000002059404040014329D1606F062816D2B1
:1043B000DFE800F003040B12131412E0012104F1F2
:1043C000080008F033FC05460BE0012104F1280049
:1043D00008F0DEFC054604E003E002E001E0012510
:1043E00000BF00BF55B958482830006820F00700CA
:1043F000616F084354492831086000E0A846042250
:10440000D4E90010114000201346594040400143B8
:104410002BD1D4F89000062816D2DFE800F0030470
:104420000B12131412E0012104F1080008F0FEFB46
:1044300005460BE0012104F1280008F0A9FC05461F
:1044400004E003E002E001E0012500BF00BF5DB928
:104450003D482C30006820F00700D4F89010084345
:1044600039492C31086000E0A8462023D4E9000136
:104470001840002158404940084337D1D4F88C00F7
:10448000B0F1405F1ED007DC68B1B0F1805F0BD0A7
:10449000B0F1005F19D10EE0B0F1804F13D0B0F150
:1044A000A04F12D110E012E0002104F1080008F042
:1044B000BDFB05460BE0022104F1280008F068FC72
:1044C000054604E003E002E001E0012500BF00BF73
:1044D0005DB91D482830006820F0E040D4F88C1009
:1044E000084319492831086000E0A8464023D4E970
:1044F0000010194000205940404001433CD1D4F8FD
:104500009800B0F5406F25D007DC68B1B0F5806F3A
:104510000BD0B0F5006F20D10EE0B0F5805F1AD05F
:10452000B0F5A05F19D117E019E0002104F10800EF
:1045300008F07CFB054612E0022104F1280008F097
:1045400027FC05460BE000002C44025800480258A6
:10455000FFFCFF0F03E002E001E0012500BF00BF08
:104560004DB9FE48006820F4E050D4F89810084394
:10457000FA49086000E0A8468023D4E900101940F9
:10458000002059404040014335D1D4F89C00B0F59B
:10459000C04F1ED007DC68B1B0F5005F0BD0B0F59E
:1045A000804F19D10EE0B0F5004F13D0B0F5204F79
:1045B00012D110E012E0002104F1080008F036FBEF
:1045C00005460BE0022104F1280008F0E1FB054656
:1045D00004E003E002E001E0012500BF00BF4DB9A7
:1045E000DE48006820F46040D4F89C100843DB49A2
:1045F000086000E0A8460823D4E900011840002123
:1046000058404940084317D1D4F88000B0F5805F86
:1046100007D1022104F1280008F0BAFB08B14FF0DD
:104620000108CE48001F006820F44050D4F88010E4
:104630000843CA49091F08601023D4E90001184043
:10464000002158404940084315D1D4F89400B0F5F2
:10465000807F07D1022104F1280008F099FB08B1FE
:104660004FF00108BD48006820F44070D4F8941061
:104670000843BA4908604FF40023D4E90001184008
:10468000002158404940084327D1D4F8A00030B158
:10469000B0F5803F0AD0B0F5003F0FD10DE000210A
:1046A00004F1080008F0C2FA054609E0022104F10D
:1046B000280008F06DFB054602E001E0012500BF7F
:1046C00000BF4DB9A548006820F44030D4F8A010D0
:1046D0000843A249086000E0A8464FF48023D4E9CB
:1046E0000001184000215840494008432DD1D4F81A
:1046F0008400B0F5801F06D0B0F5001F0CD0B0F5D7
:10470000401F11D10FE095482C38006840F400306C
:1047100092492C39086009E0012104F1280008F0D1
:1047200037FB054602E001E0012500BF00BF5DB98F
:104730008A48001F006820F44010D4F88410084311
:104740008649091F086000E0A8464FF48032D4E98A
:10475000000110400021134658404940084325D12C
:10476000206D18B1B0F5803F10D108E07B482C389F
:10477000006840F4003079492C39086008E00221D3
:1047800004F1080008F052FA054601E0012500BFD7
:1047900000BF55B971480C38006820F48030216D95
:1047A00008436E490C39086000E0A8464FF00053FA
:1047B000D4E900101940002059404040014307D17E
:1047C000022104F1280008F0E3FA08B14FF00108D3
:1047D0004FF40032D4E90001104000211346584044
:1047E0004940084327D1E06FA0B1B0F5807F06D0E3
:1047F000B0F5007F0CD0B0F5407F0CD109E05748F0
:104800002C38006840F4003054492C39086004E02A
:1048100003E002E001E0012500BF00BF55B94F48A9
:10482000001F006820F44070E16F08434B49091FE6
:10483000086000E0A8464FF48012D4E9001011404F
:104840000020134659404040014309D143480838ED
:10485000006820F00040216F084340490839086093
:104860004FF40013D4E9000118400021584049409A
:10487000084309D139480838006820F08070A16EDB
:1048800008433649083908604FF08043D4E90010E6
:104890001940002059404040014311D100BF2F482A
:1048A0004838006820F400402C4948390860084620
:1048B0000068D4F8B410084328494839086000BF9C
:1048C0004FF00042D4E90001104000211346584047
:1048D0004940084309D121480C38006820F0405075
:1048E000616D08431D490C3908604FF40002D4E99A
:1048F00000101140002013465940404001430AD1A6
:104900001648001F006820F44000D4F888100843BF
:104910001249091F086001220021606810404940C7
:104920005040014306D104F1080008F07FF9054624
:1049300005B1A8460222002160681040494050405D
:10494000014307D1012104F1080008F06FF9054681
:1049500005B1A84604230020616801E058440258CC
:104960001940042240405140084307D1022104F17C
:10497000080008F05BF9054605B1A84608230020A9
:1049800061681940082240405140084307D1002186
:1049900004F1280008F0FCF9054605B1A8461023EB
:1049A000002061681940102240405140084307D15F
:1049B000012104F1280008F0EBF9054605B1A846ED
:1049C000202200216068104049405040014307D137
:1049D000022104F1280008F0DBF9054605B1A846DC
:1049E000B8F1000F02D10020BDE8F0810120FBE703
:1049F0002DE9F04104460D4614B90120BDE8F081CF
:104A0000BD48006800F00F00A8420ED2BA48006806
:104A100020F00F002843B84908600846006800F0FD
:104A20000F00A84201D00120E8E7207800F0040040
:104A300004280ED1B1492069096801F0700188424B
:104A400007D9AE48006820F0700021690843AB49DF
:104A50000860207800F00800082811D1A749091D36
:104A60006069096801F07001884209D9A348001DF6
:104A7000006820F0700061690843A049091D0860C2
:104A8000207800F01000102811D19C49091DA06960
:104A9000096801F4E061884209D99848001D00685E
:104AA00020F4E060A16908439449091D086020785A
:104AB00000F02000202811D190490831E0690968F0
:104AC00001F07001884209D98C480830006820F054
:104AD0007000E1690843894908310860207800F0D6
:104AE000020002280ED18549E068096801F00F0133
:104AF000884207D98148006820F00F00E168084328
:104B00007E490860207800F00100002850D07B48E2
:104B1000006820F47060A168084378490860606804
:104B2000022807D1754818380068C0F34040F8B92A
:104B3000012063E76068032807D1704818380068CF
:104B4000C0F34060A0B9012058E76068012807D190
:104B50006A4818380068C0F3002048B901204DE7C2
:104B6000664818380068C0F3800008B9012045E79E
:104B700062480838006820F00700616808435F4910
:104B800008390860FEF778FD064608E0FEF774FD78
:104B9000801B41F28831884201D903202EE7574813
:104BA0000838006800F038006168B0EBC10FEDD143
:104BB000207800F0020002280ED15049E068096810
:104BC00001F00F01884207D24C48006820F00F0026
:104BD000E1680843494908604748006800F00F0051
:104BE000A8420ED94448006820F00F0028434249EB
:104BF00008600846006800F00F00A84201D00120BC
:104C0000FCE6207800F0040004280ED13B4920691E
:104C1000096801F07001884207D23848006820F026
:104C200070002169084335490860207800F00800C9
:104C3000082811D13149091D6069096801F0700126
:104C4000884209D22D48001D006820F0700061697B
:104C500008432A49091D0860207800F01000102838
:104C600011D12649091DA069096801F4E061884253
:104C700009D22248001D006820F4E060A1690843C1
:104C80001E49091D0860207800F02000202811D15D
:104C90001A490831E069096801F07001884209D2B7
:104CA00016480830006820F07000E1690843134995
:104CB0000831086000F076F810490968C1F3032153
:104CC0000F4A515C01F01F0120FA01F70B48006800
:104CD00000F00F001146085C00F01F0027FA00F0FA
:104CE000084908600848076008480068FEF706FDA4
:104CF0008046404682E600000020005218440258D8
:104D000028D8000814000024100000240800002403
:104D100010B500F047F80D490968C1F303210C4AAA
:104D2000515C01F01F0120FA01F40848006800F00E
:104D30000F001146085C00F01F0024FA00F005493E
:104D40000860054804600846006810BD1844025811
:104D500028D80008140000241000002400B5FFF734
:104D6000D7FF05490968C1F30211044A515C01F0FB
:104D70001F01C84000BD00001C44025828D800088C
:104D800000B5FFF7C5FF05490968C1F30221044AD0
:104D9000515C01F01F01C84000BD00001C440258D6
:104DA00028D80008F0B5824E366806F0380636B1CD
:104DB000082E15D0102E15D0182E7DD114E07C4E63
:104DC000103E3668C6F3401646B1794E103E36683E
:104DD000C6F3C107774E26FA07F000E07548E5E014
:104DE0007548E3E07548E1E0714E1836366806F024
:104DF00003046F4E18363668C6F305116C4E1C3628
:104E0000366806F001056A4E24363668C6F3CC06CD
:104E100016FB05F601EE106AB8EE410A002971D0C2
:104E200024B1012C50D0022C6DD16DE0604E103EAB
:104E30003668C6F340163EB35D4E103E3668C6F384
:104E4000C1075C4E26FA07F301EE103AF8EE411A5C
:104E500001EE101AB8EE411A81EE812A9FED581A20
:104E6000C0EE011A524E20363668C6F3080601EE2F
:104E7000106AB8EE411A31EE811AF7EE001A31EEDF
:104E8000211A62EE010A1EE001EE101AB8EE411A74
:104E9000DFED4C1A81EE812A9FED491AC0EE011A0E
:104EA000434E20363668C6F3080601EE106AB8EEA7
:104EB000411A31EE811A00E076E0F7EE001A31EE89
:104EC000211A62EE010A5BE001EE101AB8EE411AF7
:104ED0009FED3D2AC2EE011A9FED391A80EE012A9C
:104EE000334E20363668C6F3080601EE106AB8EE77
:104EF000411A32EE011AB7EE002A31EE021A61EEC3
:104F0000810A3DE04EE01DE001EE101AB8EE411AB4
:104F1000DFED2E1A81EE812A9FED291AC0EE011ACB
:104F2000234E20363668C6F3080601EE106AB8EE46
:104F3000411A31EE811AF7EE001A31EE211A62EEB3
:104F4000010A1DE001EE101AB8EE411A9FED1E2A6B
:104F5000C2EE011A9FED1A1A80EE012A144E203675
:104F60003668C6F3080601EE106AB8EE411A32EE52
:104F7000011AB7EE002A31EE021A61EE810A00BF73
:104F800000BF0B4E20363668C6F34626721C01EE73
:104F9000102AB8EE411AC0EE811ABCEEE11A11EEE9
:104FA000100A00E0002001E0034800BF00BFF0BD90
:104FB000104402580090D00300093D0000366E01F5
:104FC000000000460024744C0024744A001BB74BB8
:104FD0002DE9F047044614B90120BDE8F087207898
:104FE00000F00100002870D0F948006800F038088F
:104FF000F7481830D0F80090B8F1100F06D0B8F18B
:10500000180F0FD109F0030002280BD1F048103817
:105010000068C0F3404000286AD06068002867D16B
:105020000120DAE700BF6068B0F5803F08D1E848AA
:105030001038006840F48030E549103908602EE0EF
:10504000606868B9E2481038006820F48030E049B0
:10505000103908600846006820F4802008601EE0CF
:105060006068B0F5A02F0DD1D9481038006840F421
:105070008020D749103908600846006840F4803025
:1050800008600CE0D2481038006820F48030D04925
:10509000103908600846006820F48020086000BFCE
:1050A000606898B1FEF7E8FA054606E0FEF7E4FA14
:1050B000401B642801D903208FE7C54810380068D9
:1050C000C0F340400028F1D012E012E0FEF7D4FA1D
:1050D000054606E0FEF7D0FA401B642801D90320FC
:1050E0007BE7BB4810380068C0F340400028F1D18E
:1050F00000BF207800F00200022879D1B44800688F
:1051000000F03808B2481830D0F80090B8F1000F1D
:1051100005D0B8F1180F35D109F0030088BBAC48B1
:1051200010380068C0F3800018B1E06808B90120A9
:1051300053E7A7481038006820F01900E1680843D9
:10514000A34910390860FEF797FA054606E0FEF716
:1051500093FA401B022801D903203EE79C481038EF
:105160000068C0F380000028F1D099480C3800682E
:1051700020F0FE40217C40EA016095490C3908602E
:1051800045E0FFE7E06838B391481038006820F048
:105190001900E16808438E4910390860FEF76CFA7F
:1051A000054606E0FEF768FA401B022801D90320F5
:1051B00013E7874810380068C0F380000028F1D05A
:1051C00083480C38006820F0FE40217C40EA0160F2
:1051D0007F490C3908601AE07D481038006820F0DB
:1051E00001007B4910390860FEF746FA054607E0E2
:1051F0000EE0FEF741FA401B022801D90320ECE63D
:10520000734810380068C0F380000028F1D100BF57
:10521000207800F0100010286FD16D48006800F071
:1052200038086B481830D0F80090B8F1080F06D055
:10523000B8F1180F1CD109F00300012818D16448F7
:1052400010380068C0F3002020B1E069802801D048
:105250000120C2E600BF5E48001F006820F07C50BD
:1052600094F8201040EA01605949091F086043E0A2
:10527000E06938B356481038006840F0800054495F
:1052800010390860FEF7F8F9054606E0FEF7F4F974
:10529000401B022801D903209FE64D4810380068C2
:1052A000C0F300200028F1D000BF4948001F00686B
:1052B00020F07C5094F8201040EA01604449091F16
:1052C000086019E042481038006820F0800040492A
:1052D00010390860FEF7D0F9054606E0FEF7CCF974
:1052E000401B022801D9032077E6394810380068AE
:1052F000C0F300200028F1D100BF207800F00800A2
:10530000082836D16069D0B131486430006840F077
:1053100001002F4964310860FEF7AEF9054606E04A
:10532000FEF7AAF9401B022801D9032055E62848B8
:1053300064300068C0F340000028F1D019E0244830
:105340006430006820F00100214964310860FEF7F4
:1053500093F9054606E0FEF78FF9401B022801D9B4
:1053600003203AE61A4864300068C0F34000002881
:10537000F1D1207800F02000202838D1A069D0B1E8
:1053800013481038006840F4805011491039086003
:10539000FEF772F9054606E0FEF76EF9401B02289B
:1053A00001D9032019E60A4810380068C0F34030DC
:1053B0000028F1D01BE006481038006820F4805027
:1053C000034910390860FEF757F9054609E0000067
:1053D00010440258FEF750F9401B022801D903205F
:1053E000FBE5D0480068C0F340300028F2D12078B7
:1053F00000F0040004287DD1CB48006840F48070A0
:10540000C9490860FEF738F9054606E0FEF734F9A9
:10541000401B642801D90320DFE5C348006800F47D
:1054200080700028F2D000BFA068012808D1BD48D4
:105430007030006840F00100BA49703108602DE01A
:10544000A06868B9B7487030006820F00100B5491D
:10545000703108600846006820F0040008601DE014
:10546000A06805280DD1AF487030006840F00400F6
:10547000AC49703108600846006840F001000860DF
:105480000CE0A8487030006820F00100A549703198
:1054900008600846006820F00400086000BFA068AB
:1054A000A0B1FEF7E9F8054608E0FEF7E5F8401B75
:1054B00041F28831884201D903208EE59948703045
:1054C0000068C0F340000028EFD013E0FEF7D4F8E6
:1054D000054608E0FEF7D0F8401B41F288318842CB
:1054E00001D9032079E58F4870300068C0F340008F
:1054F0000028EFD1606A00287DD08A48103000680B
:1055000000F03800182877D0606A022875D18548E5
:10551000006820F0807083490860FEF7ADF805460A
:1055200006E0FEF7A9F8401B022801D9032054E544
:105530007C480068C0F340600028F2D100BFD4E985
:105540000A1041EA001077492831096840F2F33225
:1055500091430843734928310860208E401EC0F3F0
:105560000800616B491E4FF47E4202EA4121084364
:10557000218F491ED20102EA014108433C21095D05
:10558000491E120202EA016108436649303108608F
:1055900000BF081F006820F00100091F0860614873
:1055A000343000684FF6F8718843A16C40EAC100BE
:1055B0005C49343108605B482C30006820F00C00F6
:1055C000216C084357492C3108600846006820F0D8
:1055D0000200616C084353492C310860084600689A
:1055E00040F4803008600846006840F400300860ED
:1055F0000846006802E092E038E01FE040F48020B6
:1056000008600846006840F00100086045480068EE
:1056100040F0807043490860FEF72EF8054606E02A
:10562000FEF72AF8401B022801D90320D5E43D48A3
:105630000068C0F340600028F2D070E0394800688C
:1056400020F0807037490860FEF716F8054606E03E
:10565000FEF712F8401B022801D90320BDE43148AF
:105660000068C0F340600028F2D158E02D4828308F
:1056700007682C4830300668606A012821D007F09E
:105680000301A06A81421CD1C7F30511E06A884278
:1056900017D1C6F30801206B401E814211D1606B07
:1056A000401EC6F3462188420BD1A06B401EC6F3B4
:1056B0000641884205D1E06B401EC6F30661884270
:1056C00001D0012089E4174834300068C0F3CC07CA
:1056D000A06CB84223D013482C30006820F00100A1
:1056E00010492C310860FDF7C7FF054600BFFDF7E4
:1056F000C3FF401BFBD00B48343000684FF6F871F5
:105700008843A16C40EAC10006493431086005486D
:105710002C30006840F0010002492C310860002064
:105720005BE400000044025800480258034A126833
:1057300082430A43014B1A6070470000040400587A
:1057400070B504462546681EB0F1807F01D3012064
:105750000FE0681E4FF0E02148610F214FF0FF304D
:1057600007F048FA00204FF0E02188610720086127
:10577000002070BD704770477047000030B502468A
:105780000B4600BF92F83C00012801D1022030BD39
:10579000012082F83C0000BF022082F83D00106822
:1057A000416810688468254D1068A84203D0244DD4
:1057B0001068A84203D121F470015868014321F018
:1057C000700118680143106841601C4D1068A842C0
:1057D00023D01068B0F1804F1FD01A4D1068A84236
:1057E0001BD0194D1068A84217D0184D1068A84258
:1057F00013D0134D1068A8420FD0154D1068A84261
:105800000BD0144D1068A84207D0134D1068A84261
:1058100003D0124D1068A84205D124F08004986886
:10582000044310688460012082F83D0000BF00201E
:1058300082F83C0000BF00BFA9E700000000014063
:10584000000401400004004000080040000C00403B
:10585000001800400040014000E0004000E400402B
:1058600010B504460CB9012010BD94F83D0028B9CC
:10587000002084F83C00204600F02AF8022084F83A
:105880003D00211D206802F095FA012084F84800AF
:1058900000BF84F83E0001213F2001554020015502
:1058A00041200155422001554320015500BF00BF52
:1058B000012084F844004520015546200155472029
:1058C000015500BF012084F83D000020CCE7000016
:1058D00038B504461A492068884216D100BF1948D5
:1058E000006840F00400174908600846006800F0AE
:1058F0000400009000BF00BF002211461E20FDF7EB
:105900004FFF1E20FDF738FF19E00F49206888423D
:1059100015D100BF0B48006840F008000949086035
:105920000846006800F00800009000BF00BF002299
:1059300011463220FDF734FF3220FDF71DFF38BD40
:1059400000080040E8440258000C0040014691F86D
:105950003D00012801D001207047022081F83D0060
:105960000868C06840F001000B68D860204B0868E8
:10597000984223D00868B0F1804F1FD01D4B0868B3
:1059800098421BD01C4B0868984217D01B4B0868E4
:10599000984213D01A4B086898420FD0194B0868E8
:1059A00098420BD0184B0868984207D0174B0868EC
:1059B000984203D0164B0868984210D10868806856
:1059C000144B00EA0302062A0FD0B2F5803F0CD038
:1059D0000868006840F001000B68186005E008687E
:1059E000006840F001000B6818600020B4E7000078
:1059F000000001400004004000080040000C00408E
:105A000000040140001800400040014000E0004058
:105A100000E40040070001002DE9F04104460D4676
:105A2000002700BF94F83C00012802D10220BDE805
:105A3000F081012084F83C0000BF022084F83D0082
:105A4000206886684048064026F47F4620688660C5
:105A50002868702826D00CDC00F00F01002966D1E0
:105A60000011072863D2DFE800F0555657584B372E
:105A70004100B0F1101F52D009DCB0F5805F10D0AA
:105A8000B0F5005F1BD0B0F5801F50D146E0A0F507
:105A900080102038002843D0102842D0202846D13A
:105AA00040E046E0D5E902136A68206802F007FA90
:105AB0002068866846F077062068866039E0D5E978
:105AC00002136A68206802F0FAF92068806840F4DE
:105AD0008040216888602CE0EA686968206806F0E8
